{
  "_format": "hh-sol-artifact-1",
  "contractName": "VerifySignature",
  "sourceName": "contracts/VerifySignature.sol",
  "abi": [
    {
      "inputs": [
        {
          "internalType": "bytes32",
          "name": "_ethSignedMessageHash",
          "type": "bytes32"
        },
        {
          "internalType": "bytes",
          "name": "_signature",
          "type": "bytes"
        }
      ],
      "name": "recoverSigner",
      "outputs": [
        {
          "internalType": "address",
          "name": "",
          "type": "address"
        }
      ],
      "stateMutability": "pure",
      "type": "function"
    },
    {
      "inputs": [
        {
          "internalType": "bytes",
          "name": "sig",
          "type": "bytes"
        }
      ],
      "name": "splitSignature",
      "outputs": [
        {
          "internalType": "bytes32",
          "name": "r",
          "type": "bytes32"
        },
        {
          "internalType": "bytes32",
          "name": "s",
          "type": "bytes32"
        },
        {
          "internalType": "uint8",
          "name": "v",
          "type": "uint8"
        }
      ],
      "stateMutability": "pure",
      "type": "function"
    }
  ],
  "bytecode": "0x608060405234801561001057600080fd5b506102eb806100206000396000f3fe608060405234801561001057600080fd5b50600436106100365760003560e01c806397aba7f91461003b578063a7bb58031461006b575b600080fd5b61004e610049366004610231565b61009c565b6040516001600160a01b0390911681526020015b60405180910390f35b61007e610079366004610278565b61011b565b60408051938452602084019290925260ff1690820152606001610062565b6000806000806100ab8561011b565b6040805160008152602081018083528b905260ff8316918101919091526060810184905260808101839052929550909350915060019060a0016020604051602081039080840390855afa158015610106573d6000803e3d6000fd5b5050604051601f190151979650505050505050565b600080600083516041146101705760405162461bcd60e51b81526020600482015260186024820152770d2dcecc2d8d2c840e6d2cedcc2e8eae4ca40d8cadccee8d60431b604482015260640160405180910390fd5b50505060208101516040820151606090920151909260009190911a90565b634e487b7160e01b600052604160045260246000fd5b600082601f8301126101b557600080fd5b813567ffffffffffffffff808211156101d0576101d061018e565b604051601f8301601f19908116603f011681019082821181831017156101f8576101f861018e565b8160405283815286602085880101111561021157600080fd5b836020870160208301376000602085830101528094505050505092915050565b6000806040838503121561024457600080fd5b82359150602083013567ffffffffffffffff81111561026257600080fd5b61026e858286016101a4565b9150509250929050565b60006020828403121561028a57600080fd5b813567ffffffffffffffff8111156102a157600080fd5b6102ad848285016101a4565b94935050505056fea2646970667358221220e65dee3f00182e26b68f019ad9dae371ea00d2089b578ac2b7488fe90365471364736f6c63430008090033",
  "linkReferences": {},
  "deployedLinkReferences": {}
}