{
  "_format": "hh-sol-artifact-1",
  "contractName": "BettingV2",
  "sourceName": "contracts/BettingV2.sol",
  "abi": [
    {
      "anonymous": false,
      "inputs": [
        {
          "indexed": false,
          "internalType": "address",
          "name": "previousAdmin",
          "type": "address"
        },
        {
          "indexed": false,
          "internalType": "address",
          "name": "newAdmin",
          "type": "address"
        }
      ],
      "name": "AdminChanged",
      "type": "event"
    },
    {
      "anonymous": false,
      "inputs": [
        {
          "indexed": true,
          "internalType": "address",
          "name": "beacon",
          "type": "address"
        }
      ],
      "name": "BeaconUpgraded",
      "type": "event"
    },
    {
      "anonymous": false,
      "inputs": [
        {
          "indexed": true,
          "internalType": "uint256",
          "name": "poolId",
          "type": "uint256"
        },
        {
          "indexed": true,
          "internalType": "address",
          "name": "player",
          "type": "address"
        },
        {
          "indexed": true,
          "internalType": "uint256",
          "name": "teamId",
          "type": "uint256"
        },
        {
          "indexed": false,
          "internalType": "uint256",
          "name": "amount",
          "type": "uint256"
        }
      ],
      "name": "BetPlaced",
      "type": "event"
    },
    {
      "anonymous": false,
      "inputs": [
        {
          "indexed": true,
          "internalType": "uint256",
          "name": "poolId",
          "type": "uint256"
        },
        {
          "indexed": true,
          "internalType": "address",
          "name": "player",
          "type": "address"
        },
        {
          "indexed": false,
          "internalType": "uint256",
          "name": "amount",
          "type": "uint256"
        }
      ],
      "name": "CommissionClaimed",
      "type": "event"
    },
    {
      "anonymous": false,
      "inputs": [
        {
          "indexed": false,
          "internalType": "uint8",
          "name": "version",
          "type": "uint8"
        }
      ],
      "name": "Initialized",
      "type": "event"
    },
    {
      "anonymous": false,
      "inputs": [
        {
          "indexed": true,
          "internalType": "uint256",
          "name": "poolId",
          "type": "uint256"
        },
        {
          "indexed": true,
          "internalType": "address",
          "name": "player",
          "type": "address"
        },
        {
          "indexed": false,
          "internalType": "uint256",
          "name": "amount",
          "type": "uint256"
        }
      ],
      "name": "RefundClaimed",
      "type": "event"
    },
    {
      "anonymous": false,
      "inputs": [
        {
          "indexed": true,
          "internalType": "bytes32",
          "name": "role",
          "type": "bytes32"
        },
        {
          "indexed": true,
          "internalType": "bytes32",
          "name": "previousAdminRole",
          "type": "bytes32"
        },
        {
          "indexed": true,
          "internalType": "bytes32",
          "name": "newAdminRole",
          "type": "bytes32"
        }
      ],
      "name": "RoleAdminChanged",
      "type": "event"
    },
    {
      "anonymous": false,
      "inputs": [
        {
          "indexed": true,
          "internalType": "bytes32",
          "name": "role",
          "type": "bytes32"
        },
        {
          "indexed": true,
          "internalType": "address",
          "name": "account",
          "type": "address"
        },
        {
          "indexed": true,
          "internalType": "address",
          "name": "sender",
          "type": "address"
        }
      ],
      "name": "RoleGranted",
      "type": "event"
    },
    {
      "anonymous": false,
      "inputs": [
        {
          "indexed": true,
          "internalType": "bytes32",
          "name": "role",
          "type": "bytes32"
        },
        {
          "indexed": true,
          "internalType": "address",
          "name": "account",
          "type": "address"
        },
        {
          "indexed": true,
          "internalType": "address",
          "name": "sender",
          "type": "address"
        }
      ],
      "name": "RoleRevoked",
      "type": "event"
    },
    {
      "anonymous": false,
      "inputs": [
        {
          "indexed": true,
          "internalType": "uint256",
          "name": "poolId",
          "type": "uint256"
        },
        {
          "indexed": true,
          "internalType": "address",
          "name": "player",
          "type": "address"
        },
        {
          "indexed": false,
          "internalType": "uint256",
          "name": "amount",
          "type": "uint256"
        }
      ],
      "name": "TeamRefundClaimed",
      "type": "event"
    },
    {
      "anonymous": false,
      "inputs": [
        {
          "indexed": true,
          "internalType": "address",
          "name": "implementation",
          "type": "address"
        }
      ],
      "name": "Upgraded",
      "type": "event"
    },
    {
      "anonymous": false,
      "inputs": [
        {
          "indexed": true,
          "internalType": "uint256",
          "name": "poolId",
          "type": "uint256"
        },
        {
          "indexed": true,
          "internalType": "address",
          "name": "player",
          "type": "address"
        },
        {
          "indexed": false,
          "internalType": "uint256",
          "name": "amount",
          "type": "uint256"
        }
      ],
      "name": "WinningsClaimed",
      "type": "event"
    },
    {
      "inputs": [],
      "name": "ADMIN_ROLE",
      "outputs": [
        {
          "internalType": "bytes32",
          "name": "",
          "type": "bytes32"
        }
      ],
      "stateMutability": "view",
      "type": "function"
    },
    {
      "inputs": [],
      "name": "BPS_UNIT",
      "outputs": [
        {
          "internalType": "uint256",
          "name": "",
          "type": "uint256"
        }
      ],
      "stateMutability": "view",
      "type": "function"
    },
    {
      "inputs": [],
      "name": "COMMISION",
      "outputs": [
        {
          "internalType": "uint8",
          "name": "",
          "type": "uint8"
        }
      ],
      "stateMutability": "view",
      "type": "function"
    },
    {
      "inputs": [],
      "name": "DEFAULT_ADMIN_ROLE",
      "outputs": [
        {
          "internalType": "bytes32",
          "name": "",
          "type": "bytes32"
        }
      ],
      "stateMutability": "view",
      "type": "function"
    },
    {
      "inputs": [],
      "name": "MIN_BET",
      "outputs": [
        {
          "internalType": "uint256",
          "name": "",
          "type": "uint256"
        }
      ],
      "stateMutability": "view",
      "type": "function"
    },
    {
      "inputs": [],
      "name": "SCALING_FACTOR",
      "outputs": [
        {
          "internalType": "uint256",
          "name": "",
          "type": "uint256"
        }
      ],
      "stateMutability": "view",
      "type": "function"
    },
    {
      "inputs": [
        {
          "internalType": "bytes",
          "name": "sig",
          "type": "bytes"
        }
      ],
      "name": "_splitSignature",
      "outputs": [
        {
          "internalType": "bytes32",
          "name": "r",
          "type": "bytes32"
        },
        {
          "internalType": "bytes32",
          "name": "s",
          "type": "bytes32"
        },
        {
          "internalType": "uint8",
          "name": "v",
          "type": "uint8"
        }
      ],
      "stateMutability": "pure",
      "type": "function"
    },
    {
      "inputs": [
        {
          "internalType": "address",
          "name": "who_",
          "type": "address"
        },
        {
          "internalType": "uint256",
          "name": "poolId_",
          "type": "uint256"
        }
      ],
      "name": "allPayouts",
      "outputs": [
        {
          "internalType": "uint256",
          "name": "",
          "type": "uint256"
        },
        {
          "internalType": "uint256",
          "name": "",
          "type": "uint256"
        },
        {
          "internalType": "uint256",
          "name": "",
          "type": "uint256"
        }
      ],
      "stateMutability": "view",
      "type": "function"
    },
    {
      "inputs": [
        {
          "internalType": "uint256",
          "name": "",
          "type": "uint256"
        }
      ],
      "name": "bets",
      "outputs": [
        {
          "internalType": "uint256",
          "name": "id",
          "type": "uint256"
        },
        {
          "internalType": "uint256",
          "name": "poolId",
          "type": "uint256"
        },
        {
          "internalType": "uint256",
          "name": "teamId",
          "type": "uint256"
        },
        {
          "internalType": "uint256",
          "name": "amount",
          "type": "uint256"
        },
        {
          "internalType": "address",
          "name": "player",
          "type": "address"
        },
        {
          "internalType": "uint256",
          "name": "createdAt",
          "type": "uint256"
        }
      ],
      "stateMutability": "view",
      "type": "function"
    },
    {
      "inputs": [],
      "name": "bettingAdmin",
      "outputs": [
        {
          "internalType": "contract IBettingAdmin",
          "name": "",
          "type": "address"
        }
      ],
      "stateMutability": "view",
      "type": "function"
    },
    {
      "inputs": [
        {
          "internalType": "uint256",
          "name": "poolId_",
          "type": "uint256"
        },
        {
          "internalType": "uint256",
          "name": "teamId_",
          "type": "uint256"
        }
      ],
      "name": "calculateOdds",
      "outputs": [
        {
          "internalType": "uint256",
          "name": "",
          "type": "uint256"
        }
      ],
      "stateMutability": "view",
      "type": "function"
    },
    {
      "inputs": [
        {
          "internalType": "uint256",
          "name": "poolId_",
          "type": "uint256"
        }
      ],
      "name": "claimCommission",
      "outputs": [],
      "stateMutability": "nonpayable",
      "type": "function"
    },
    {
      "inputs": [
        {
          "internalType": "uint256",
          "name": "poolId_",
          "type": "uint256"
        },
        {
          "internalType": "uint256",
          "name": "amount_",
          "type": "uint256"
        },
        {
          "internalType": "uint256",
          "name": "signedBlockNum_",
          "type": "uint256"
        },
        {
          "internalType": "bytes",
          "name": "signature_",
          "type": "bytes"
        }
      ],
      "name": "claimCommissionWithSignature",
      "outputs": [],
      "stateMutability": "nonpayable",
      "type": "function"
    },
    {
      "inputs": [
        {
          "internalType": "uint256",
          "name": "poolId_",
          "type": "uint256"
        }
      ],
      "name": "claimPayment",
      "outputs": [],
      "stateMutability": "nonpayable",
      "type": "function"
    },
    {
      "inputs": [
        {
          "internalType": "uint256",
          "name": "poolId_",
          "type": "uint256"
        }
      ],
      "name": "claimRefund",
      "outputs": [],
      "stateMutability": "nonpayable",
      "type": "function"
    },
    {
      "inputs": [
        {
          "internalType": "uint256",
          "name": "poolId_",
          "type": "uint256"
        },
        {
          "internalType": "uint256",
          "name": "teamId_",
          "type": "uint256"
        }
      ],
      "name": "claimTeamRefund",
      "outputs": [],
      "stateMutability": "nonpayable",
      "type": "function"
    },
    {
      "inputs": [
        {
          "internalType": "address",
          "name": "",
          "type": "address"
        },
        {
          "internalType": "uint256",
          "name": "",
          "type": "uint256"
        }
      ],
      "name": "claimedCommissions",
      "outputs": [
        {
          "internalType": "uint256",
          "name": "",
          "type": "uint256"
        }
      ],
      "stateMutability": "view",
      "type": "function"
    },
    {
      "inputs": [
        {
          "internalType": "address",
          "name": "",
          "type": "address"
        },
        {
          "internalType": "uint256",
          "name": "",
          "type": "uint256"
        }
      ],
      "name": "claimedPayouts",
      "outputs": [
        {
          "internalType": "uint256",
          "name": "",
          "type": "uint256"
        }
      ],
      "stateMutability": "view",
      "type": "function"
    },
    {
      "inputs": [
        {
          "internalType": "address",
          "name": "",
          "type": "address"
        },
        {
          "internalType": "uint256",
          "name": "",
          "type": "uint256"
        }
      ],
      "name": "claimedRefunds",
      "outputs": [
        {
          "internalType": "uint256",
          "name": "",
          "type": "uint256"
        }
      ],
      "stateMutability": "view",
      "type": "function"
    },
    {
      "inputs": [
        {
          "internalType": "uint256",
          "name": "amount_",
          "type": "uint256"
        }
      ],
      "name": "estimateCommision",
      "outputs": [
        {
          "internalType": "uint256",
          "name": "",
          "type": "uint256"
        }
      ],
      "stateMutability": "pure",
      "type": "function"
    },
    {
      "inputs": [
        {
          "internalType": "address",
          "name": "player_",
          "type": "address"
        },
        {
          "internalType": "uint256",
          "name": "amount_",
          "type": "uint256"
        },
        {
          "internalType": "uint256",
          "name": "signedBlockNum_",
          "type": "uint256"
        }
      ],
      "name": "getMessageHash",
      "outputs": [
        {
          "internalType": "bytes32",
          "name": "",
          "type": "bytes32"
        }
      ],
      "stateMutability": "pure",
      "type": "function"
    },
    {
      "inputs": [
        {
          "internalType": "uint256",
          "name": "poolId_",
          "type": "uint256"
        }
      ],
      "name": "getPool",
      "outputs": [
        {
          "components": [
            {
              "internalType": "uint256",
              "name": "id",
              "type": "uint256"
            },
            {
              "internalType": "uint256",
              "name": "numberOfTeams",
              "type": "uint256"
            },
            {
              "internalType": "string",
              "name": "eventName",
              "type": "string"
            },
            {
              "internalType": "uint256",
              "name": "totalBets",
              "type": "uint256"
            },
            {
              "internalType": "uint256",
              "name": "totalAmount",
              "type": "uint256"
            },
            {
              "internalType": "uint256",
              "name": "payoutClaimed",
              "type": "uint256"
            },
            {
              "internalType": "uint256",
              "name": "totalCommissions",
              "type": "uint256"
            },
            {
              "internalType": "uint256",
              "name": "commissionsClaimed",
              "type": "uint256"
            },
            {
              "internalType": "enum Storage.PoolStatus",
              "name": "status",
              "type": "uint8"
            },
            {
              "internalType": "uint256[]",
              "name": "winners",
              "type": "uint256[]"
            },
            {
              "internalType": "uint256",
              "name": "startTime",
              "type": "uint256"
            },
            {
              "internalType": "uint256",
              "name": "endTime",
              "type": "uint256"
            },
            {
              "internalType": "contract IERC1155PresetMinterPauser",
              "name": "mintContract",
              "type": "address"
            }
          ],
          "internalType": "struct Storage.Pool",
          "name": "",
          "type": "tuple"
        }
      ],
      "stateMutability": "view",
      "type": "function"
    },
    {
      "inputs": [
        {
          "internalType": "uint256",
          "name": "poolId_",
          "type": "uint256"
        },
        {
          "internalType": "uint256",
          "name": "teamId_",
          "type": "uint256"
        }
      ],
      "name": "getPoolTeam",
      "outputs": [
        {
          "components": [
            {
              "internalType": "uint256",
              "name": "id",
              "type": "uint256"
            },
            {
              "internalType": "string",
              "name": "name",
              "type": "string"
            },
            {
              "internalType": "enum Storage.TeamStatus",
              "name": "status",
              "type": "uint8"
            }
          ],
          "internalType": "struct Storage.Team",
          "name": "",
          "type": "tuple"
        }
      ],
      "stateMutability": "view",
      "type": "function"
    },
    {
      "inputs": [
        {
          "internalType": "uint256",
          "name": "poolId_",
          "type": "uint256"
        }
      ],
      "name": "getPoolTeams",
      "outputs": [
        {
          "components": [
            {
              "internalType": "uint256",
              "name": "id",
              "type": "uint256"
            },
            {
              "internalType": "string",
              "name": "name",
              "type": "string"
            },
            {
              "internalType": "enum Storage.TeamStatus",
              "name": "status",
              "type": "uint8"
            }
          ],
          "internalType": "struct Storage.Team[]",
          "name": "",
          "type": "tuple[]"
        }
      ],
      "stateMutability": "view",
      "type": "function"
    },
    {
      "inputs": [
        {
          "internalType": "bytes32",
          "name": "role",
          "type": "bytes32"
        }
      ],
      "name": "getRoleAdmin",
      "outputs": [
        {
          "internalType": "bytes32",
          "name": "",
          "type": "bytes32"
        }
      ],
      "stateMutability": "view",
      "type": "function"
    },
    {
      "inputs": [],
      "name": "getSigner",
      "outputs": [
        {
          "internalType": "address",
          "name": "",
          "type": "address"
        }
      ],
      "stateMutability": "view",
      "type": "function"
    },
    {
      "inputs": [],
      "name": "getTotalPools",
      "outputs": [
        {
          "internalType": "uint256",
          "name": "",
          "type": "uint256"
        }
      ],
      "stateMutability": "view",
      "type": "function"
    },
    {
      "inputs": [],
      "name": "getUsdcContract",
      "outputs": [
        {
          "internalType": "contract IERC20Upgradeable",
          "name": "",
          "type": "address"
        }
      ],
      "stateMutability": "view",
      "type": "function"
    },
    {
      "inputs": [
        {
          "internalType": "address",
          "name": "userAddress_",
          "type": "address"
        },
        {
          "internalType": "uint256",
          "name": "poolId_",
          "type": "uint256"
        }
      ],
      "name": "getUserBets",
      "outputs": [
        {
          "internalType": "uint256[]",
          "name": "",
          "type": "uint256[]"
        }
      ],
      "stateMutability": "view",
      "type": "function"
    },
    {
      "inputs": [
        {
          "internalType": "bytes32",
          "name": "role",
          "type": "bytes32"
        },
        {
          "internalType": "address",
          "name": "account",
          "type": "address"
        }
      ],
      "name": "grantRole",
      "outputs": [],
      "stateMutability": "nonpayable",
      "type": "function"
    },
    {
      "inputs": [
        {
          "internalType": "bytes32",
          "name": "role",
          "type": "bytes32"
        },
        {
          "internalType": "address",
          "name": "account",
          "type": "address"
        }
      ],
      "name": "hasRole",
      "outputs": [
        {
          "internalType": "bool",
          "name": "",
          "type": "bool"
        }
      ],
      "stateMutability": "view",
      "type": "function"
    },
    {
      "inputs": [
        {
          "internalType": "address",
          "name": "bettingAdmin_",
          "type": "address"
        }
      ],
      "name": "initialize",
      "outputs": [],
      "stateMutability": "nonpayable",
      "type": "function"
    },
    {
      "inputs": [
        {
          "internalType": "uint256",
          "name": "poolId_",
          "type": "uint256"
        },
        {
          "internalType": "uint256",
          "name": "teamId_",
          "type": "uint256"
        },
        {
          "internalType": "uint256",
          "name": "amount_",
          "type": "uint256"
        }
      ],
      "name": "placeBet",
      "outputs": [],
      "stateMutability": "nonpayable",
      "type": "function"
    },
    {
      "inputs": [
        {
          "internalType": "uint256",
          "name": "",
          "type": "uint256"
        },
        {
          "internalType": "uint256",
          "name": "",
          "type": "uint256"
        }
      ],
      "name": "poolBets",
      "outputs": [
        {
          "internalType": "uint256",
          "name": "",
          "type": "uint256"
        }
      ],
      "stateMutability": "view",
      "type": "function"
    },
    {
      "inputs": [
        {
          "internalType": "uint256",
          "name": "",
          "type": "uint256"
        },
        {
          "internalType": "uint256",
          "name": "",
          "type": "uint256"
        }
      ],
      "name": "poolCommission",
      "outputs": [
        {
          "internalType": "uint256",
          "name": "amount",
          "type": "uint256"
        },
        {
          "internalType": "uint256",
          "name": "totalAmount",
          "type": "uint256"
        },
        {
          "internalType": "address",
          "name": "player",
          "type": "address"
        }
      ],
      "stateMutability": "view",
      "type": "function"
    },
    {
      "inputs": [],
      "name": "proxiableUUID",
      "outputs": [
        {
          "internalType": "bytes32",
          "name": "",
          "type": "bytes32"
        }
      ],
      "stateMutability": "view",
      "type": "function"
    },
    {
      "inputs": [
        {
          "internalType": "bytes32",
          "name": "_ethSignedMessageHash",
          "type": "bytes32"
        },
        {
          "internalType": "bytes",
          "name": "_signature",
          "type": "bytes"
        }
      ],
      "name": "recoverSigner",
      "outputs": [
        {
          "internalType": "address",
          "name": "",
          "type": "address"
        }
      ],
      "stateMutability": "pure",
      "type": "function"
    },
    {
      "inputs": [
        {
          "internalType": "bytes32",
          "name": "role",
          "type": "bytes32"
        },
        {
          "internalType": "address",
          "name": "account",
          "type": "address"
        }
      ],
      "name": "renounceRole",
      "outputs": [],
      "stateMutability": "nonpayable",
      "type": "function"
    },
    {
      "inputs": [
        {
          "internalType": "bytes32",
          "name": "role",
          "type": "bytes32"
        },
        {
          "internalType": "address",
          "name": "account",
          "type": "address"
        }
      ],
      "name": "revokeRole",
      "outputs": [],
      "stateMutability": "nonpayable",
      "type": "function"
    },
    {
      "inputs": [
        {
          "internalType": "bytes4",
          "name": "interfaceId",
          "type": "bytes4"
        }
      ],
      "name": "supportsInterface",
      "outputs": [
        {
          "internalType": "bool",
          "name": "",
          "type": "bool"
        }
      ],
      "stateMutability": "view",
      "type": "function"
    },
    {
      "inputs": [
        {
          "internalType": "address",
          "name": "who_",
          "type": "address"
        },
        {
          "internalType": "uint256",
          "name": "poolId_",
          "type": "uint256"
        }
      ],
      "name": "totalCommissions",
      "outputs": [
        {
          "internalType": "uint256",
          "name": "",
          "type": "uint256"
        }
      ],
      "stateMutability": "view",
      "type": "function"
    },
    {
      "inputs": [
        {
          "internalType": "address",
          "name": "who_",
          "type": "address"
        },
        {
          "internalType": "uint256",
          "name": "poolId_",
          "type": "uint256"
        }
      ],
      "name": "totalPayouts",
      "outputs": [
        {
          "internalType": "uint256",
          "name": "",
          "type": "uint256"
        }
      ],
      "stateMutability": "view",
      "type": "function"
    },
    {
      "inputs": [
        {
          "internalType": "address",
          "name": "who_",
          "type": "address"
        },
        {
          "internalType": "uint256",
          "name": "poolId_",
          "type": "uint256"
        }
      ],
      "name": "totalRefunds",
      "outputs": [
        {
          "internalType": "uint256",
          "name": "",
          "type": "uint256"
        }
      ],
      "stateMutability": "view",
      "type": "function"
    },
    {
      "inputs": [
        {
          "internalType": "address",
          "name": "newImplementation",
          "type": "address"
        }
      ],
      "name": "upgradeTo",
      "outputs": [],
      "stateMutability": "nonpayable",
      "type": "function"
    },
    {
      "inputs": [
        {
          "internalType": "address",
          "name": "newImplementation",
          "type": "address"
        },
        {
          "internalType": "bytes",
          "name": "data",
          "type": "bytes"
        }
      ],
      "name": "upgradeToAndCall",
      "outputs": [],
      "stateMutability": "payable",
      "type": "function"
    },
    {
      "inputs": [
        {
          "internalType": "uint256",
          "name": "",
          "type": "uint256"
        },
        {
          "internalType": "address",
          "name": "",
          "type": "address"
        },
        {
          "internalType": "uint256",
          "name": "",
          "type": "uint256"
        }
      ],
      "name": "userBets",
      "outputs": [
        {
          "internalType": "uint256",
          "name": "",
          "type": "uint256"
        }
      ],
      "stateMutability": "view",
      "type": "function"
    },
    {
      "inputs": [
        {
          "internalType": "uint256",
          "name": "amount_",
          "type": "uint256"
        }
      ],
      "name": "viewCommisionPaid",
      "outputs": [
        {
          "internalType": "uint256",
          "name": "",
          "type": "uint256"
        }
      ],
      "stateMutability": "pure",
      "type": "function"
    },
    {
      "inputs": [
        {
          "internalType": "uint256",
          "name": "poolId_",
          "type": "uint256"
        }
      ],
      "name": "viewPoolDistribution",
      "outputs": [
        {
          "internalType": "uint256[]",
          "name": "_betAmounts",
          "type": "uint256[]"
        }
      ],
      "stateMutability": "view",
      "type": "function"
    },
    {
      "inputs": [
        {
          "internalType": "uint256",
          "name": "poolId_",
          "type": "uint256"
        },
        {
          "internalType": "uint256",
          "name": "teamId_",
          "type": "uint256"
        },
        {
          "internalType": "uint256",
          "name": "amount_",
          "type": "uint256"
        }
      ],
      "name": "viewPriceImpact",
      "outputs": [
        {
          "internalType": "uint256",
          "name": "",
          "type": "uint256"
        }
      ],
      "stateMutability": "view",
      "type": "function"
    }
  ],
  "bytecode": "0x60a06040523060805234801561001457600080fd5b50608051614cea61004c60003960008181610f3701528181610f77015281816110a2015281816110e2015261115a0152614cea6000f3fe60806040526004361061025e5760003560e01c80638eca493a11610145578063cd811c25116100bc578063cd811c251461077e578063cf4969fb1461079e578063d2b0737b14610813578063d326f1fd14610833578063d3aeb7cb1461086b578063d3ffe67a146108a3578063d547741f146108b8578063d6d8dcb6146108d8578063dd4813e5146108f8578063e71c96971461091f578063e768896c1461093f578063ef4cadc51461096c578063faab83b01461098157600080fd5b80638eca493a146105da57806391d14854146105fa57806397aba7f91461061a5780639bd0e9e91461063a578063a217fddf14610678578063a84c9a561461068d578063b2ad04d2146106ad578063b97110ab146106ce578063bb156565146106e3578063c4d66de81461071e578063c63fdcc71461073e578063c64acc1e1461075e57600080fd5b806340fcd563116101d957806340fcd5631461048057806343bb9ddf146104ad578063489a298d146104cd5780634f1ef286146104e357806352d1902d146104f65780635b7baf641461050b5780635cbf47d21461052b57806361c4cc151461054b5780636540742f146104cd5780636579e09a1461056b57806375b238fc1461058b5780637ac3c02f146105ad57600080fd5b806301ffc9a714610263578063068bcd8d146102985780631a5c85c8146102c557806322af00fa146102e7578063248a9ca31461033d578063296c12cf1461037b5780632f2ff15d1461039b57806330fcabdb146103bb578063349d2cb3146103e857806336568abe146104205780633659cfe6146104405780633d5e1ab114610460575b600080fd5b34801561026f57600080fd5b5061028361027e366004613e45565b6109a1565b60405190151581526020015b60405180910390f35b3480156102a457600080fd5b506102b86102b3366004613e6f565b6109d8565b60405161028f9190613f45565b3480156102d157600080fd5b506102e56102e0366004614019565b610a61565b005b3480156102f357600080fd5b50610307610302366004613e6f565b610d04565b6040805196875260208701959095529385019290925260608401526001600160a01b0316608083015260a082015260c00161028f565b34801561034957600080fd5b5061036d610358366004613e6f565b600090815260c9602052604090206001015490565b60405190815260200161028f565b34801561038757600080fd5b5061036d610396366004614050565b610d56565b3480156103a757600080fd5b506102e56103b636600461407c565b610d69565b3480156103c757600080fd5b506103db6103d6366004613e6f565b610d93565b60405161028f91906140ac565b3480156103f457600080fd5b5061036d610403366004614050565b60fe60209081526000928352604080842090915290825290205481565b34801561042c57600080fd5b506102e561043b36600461407c565b610eae565b34801561044c57600080fd5b506102e561045b3660046140bf565b610f2c565b34801561046c57600080fd5b5061036d61047b366004613e6f565b610ff5565b34801561048c57600080fd5b506104a061049b366004613e6f565b61100a565b60405161028f9190614123565b3480156104b957600080fd5b5061036d6104c8366004613e6f565b61108c565b3480156104d957600080fd5b5061036d61271081565b6102e56104f1366004614271565b611097565b34801561050257600080fd5b5061036d61114d565b34801561051757600080fd5b506102e5610526366004613e6f565b6111fb565b34801561053757600080fd5b506102e56105463660046142c0565b61155c565b34801561055757600080fd5b5061036d610566366004614319565b6117a6565b34801561057757600080fd5b5061036d610586366004614019565b6117e4565b34801561059757600080fd5b5061036d600080516020614c9583398151915281565b3480156105b957600080fd5b506105c2611816565b6040516001600160a01b03909116815260200161028f565b3480156105e657600080fd5b506102e56105f5366004613e6f565b611899565b34801561060657600080fd5b5061028361061536600461407c565b611aa8565b34801561062657600080fd5b506105c2610635366004614351565b611ad3565b34801561064657600080fd5b5061065a610655366004614381565b611b52565b60408051938452602084019290925260ff169082015260600161028f565b34801561068457600080fd5b5061036d600081565b34801561069957600080fd5b5061036d6106a8366004614050565b611bc1565b3480156106b957600080fd5b50610102546105c2906001600160a01b031681565b3480156106da57600080fd5b506105c2611bcd565b3480156106ef57600080fd5b506107036106fe366004614050565b611c13565b6040805193845260208401929092529082015260600161028f565b34801561072a57600080fd5b506102e56107393660046140bf565b611cd8565b34801561074a57600080fd5b506102e5610759366004613e6f565b611e2f565b34801561076a57600080fd5b5061036d6107793660046143b5565b6121b2565b34801561078a57600080fd5b506103db610799366004614050565b6121c7565b3480156107aa57600080fd5b506107ef6107b9366004614019565b6101006020908152600092835260408084209091529082529020805460018201546002909201549091906001600160a01b031683565b6040805193845260208401929092526001600160a01b03169082015260600161028f565b34801561081f57600080fd5b5061036d61082e3660046143e1565b61223b565b34801561083f57600080fd5b5061036d61084e366004614050565b60fd60209081526000928352604080842090915290825290205481565b34801561087757600080fd5b5061036d610886366004614050565b60ff60209081526000928352604080842090915290825290205481565b3480156108af57600080fd5b5061036d612285565b3480156108c457600080fd5b506102e56108d336600461407c565b612303565b3480156108e457600080fd5b5061036d6108f3366004614050565b612328565b34801561090457600080fd5b5061090d606481565b60405160ff909116815260200161028f565b34801561092b57600080fd5b506102e561093a3660046143b5565b612334565b34801561094b57600080fd5b5061095f61095a366004614019565b61287c565b60405161028f9190614416565b34801561097857600080fd5b5061036d606481565b34801561098d57600080fd5b5061036d61099c366004614019565b61290c565b60006001600160e01b03198216637965db0b60e01b14806109d257506301ffc9a760e01b6001600160e01b03198316145b92915050565b6109e0613d92565b6101025460405163068bcd8d60e01b8152600481018490526001600160a01b039091169063068bcd8d9060240160006040518083038186803b158015610a2557600080fd5b505afa158015610a39573d6000803e3d6000fd5b505050506040513d6000823e601f3d908101601f191682016040526109d29190810190614516565b81610a6a612285565b8110610a915760405162461bcd60e51b8152600401610a889061462f565b60405180910390fd5b6000610a9c846109d8565b9050336000610aab868661287c565b9050600181604001516001811115610ac557610ac5613ee0565b14610b225760405162461bcd60e51b815260206004820152602760248201527f42657474696e673a205465616d207374617475732073686f756c64206265205260448201526619599d5b99195960ca1b6064820152608401610a88565b610180830151604051627eeac760e11b81526000916001600160a01b03169062fdd58e90610b569086908a90600401614661565b60206040518083038186803b158015610b6e57600080fd5b505afa158015610b82573d6000803e3d6000fd5b505050506040513d601f19601f82011682018060405250810190610ba6919061467a565b905060008111610bc85760405162461bcd60e51b8152600401610a8890614693565b8361018001516001600160a01b031663f5298aca8488846040518463ffffffff1660e01b8152600401610bfd939291906146c8565b600060405180830381600087803b158015610c1757600080fd5b505af1158015610c2b573d6000803e3d6000fd5b50505050610c37611bcd565b6001600160a01b031663a9059cbb84836040518363ffffffff1660e01b8152600401610c64929190614661565b602060405180830381600087803b158015610c7e57600080fd5b505af1158015610c92573d6000803e3d6000fd5b505050506040513d601f19601f82011682018060405250810190610cb691906146e9565b50826001600160a01b0316877f3f9b763f08b82540e4c80279a773b4288b0c0339eb108637de370a82b359af1083604051610cf391815260200190565b60405180910390a350505050505050565b60fb8181548110610d1457600080fd5b6000918252602090912060069091020180546001820154600283015460038401546004850154600590950154939550919390926001600160a01b039091169086565b6000610d628383612918565b9392505050565b600082815260c96020526040902060010154610d8481612c73565b610d8e8383612c7d565b505050565b60606000610da0836109d8565b905080602001516001600160401b03811115610dbe57610dbe614185565b604051908082528060200260200182016040528015610de7578160200160208202803683370190505b50915060005b8160200151811015610ea75761018082015160405163bd85b03960e01b8152600481018390526001600160a01b039091169063bd85b0399060240160206040518083038186803b158015610e4057600080fd5b505afa158015610e54573d6000803e3d6000fd5b505050506040513d601f19601f82011682018060405250810190610e78919061467a565b838281518110610e8a57610e8a61470b565b602090810291909101015280610e9f81614737565b915050610ded565b5050919050565b6001600160a01b0381163314610f1e5760405162461bcd60e51b815260206004820152602f60248201527f416363657373436f6e74726f6c3a2063616e206f6e6c792072656e6f756e636560448201526e103937b632b9903337b91039b2b63360891b6064820152608401610a88565b610f288282612d03565b5050565b306001600160a01b037f0000000000000000000000000000000000000000000000000000000000000000161415610f755760405162461bcd60e51b8152600401610a8890614752565b7f00000000000000000000000000000000000000000000000000000000000000006001600160a01b0316610fa7612d6a565b6001600160a01b031614610fcd5760405162461bcd60e51b8152600401610a889061479e565b610fd681612d86565b60408051600080825260208201909252610ff291839190612d9e565b50565b600061100082612f18565b6109d290836147ea565b610102546040516340fcd56360e01b8152600481018390526060916001600160a01b0316906340fcd5639060240160006040518083038186803b15801561105057600080fd5b505afa158015611064573d6000803e3d6000fd5b505050506040513d6000823e601f3d908101601f191682016040526109d29190810190614887565b60006109d282612f18565b306001600160a01b037f00000000000000000000000000000000000000000000000000000000000000001614156110e05760405162461bcd60e51b8152600401610a8890614752565b7f00000000000000000000000000000000000000000000000000000000000000006001600160a01b0316611112612d6a565b6001600160a01b0316146111385760405162461bcd60e51b8152600401610a889061479e565b61114182612d86565b610f2882826001612d9e565b6000306001600160a01b037f000000000000000000000000000000000000000000000000000000000000000016146111e85760405162461bcd60e51b815260206004820152603860248201527f555550535570677261646561626c653a206d757374206e6f742062652063616c6044820152771b1959081d1a1c9bdd59da0819195b1959d85d1958d85b1b60421b6064820152608401610a88565b50600080516020614c4e83398151915290565b80611204612285565b81106112225760405162461bcd60e51b8152600401610a889061462f565b600061122d836109d8565b9050336003826101000151600381111561124957611249613ee0565b146112a65760405162461bcd60e51b815260206004820152602760248201527f42657474696e673a20506f6f6c207374617475732073686f756c642062652043604482015266185b98d95b195960ca1b6064820152608401610a88565b6001600160a01b038116600090815260fe60209081526040808320878452909152902054156113175760405162461bcd60e51b815260206004820152601f60248201527f42657474696e673a20526566756e6420616c726561647920636c61696d6564006044820152606401610a88565b60006113238286612f48565b9050600081116113455760405162461bcd60e51b8152600401610a8890614693565b6001600160a01b038216600090815260fe6020908152604080832088845282528220839055840151611378908490613190565b905060006113858761322e565b905060008561018001516001600160a01b0316634e1273f484846040518363ffffffff1660e01b81526004016113bc92919061492a565b60006040518083038186803b1580156113d457600080fd5b505afa1580156113e8573d6000803e3d6000fd5b505050506040513d6000823e601f3d908101601f191682016040526114109190810190614980565b610180870151604051631ac8311560e21b81529192506001600160a01b031690636b20c45490611448908890869086906004016149b4565b600060405180830381600087803b15801561146257600080fd5b505af1158015611476573d6000803e3d6000fd5b50505050611482611bcd565b6001600160a01b031663a9059cbb86866040518363ffffffff1660e01b81526004016114af929190614661565b602060405180830381600087803b1580156114c957600080fd5b505af11580156114dd573d6000803e3d6000fd5b505050506040513d601f19601f8201168201806040525081019061150191906146e9565b5061150d8589866132c6565b50846001600160a01b0316887ff3f402280ef0a7905e124aa621b65eaeb2725c343e8b36d398ed78c29daf285c8660405161154a91815260200190565b60405180910390a35050505050505050565b83611565612285565b81106115835760405162461bcd60e51b8152600401610a889061462f565b600061158e866109d8565b905033600282610100015160038111156115aa576115aa613ee0565b146115c75760405162461bcd60e51b8152600401610a88906149ea565b6001600160a01b038116600090815260ff602090815260408083208a8452909152902054156116085760405162461bcd60e51b8152600401610a8890614a30565b6116148187878761334e565b4385111561166e5760405162461bcd60e51b815260206004820152602160248201527f5369676e656420626c6f636b206e756d626572206d757374206265206f6c64656044820152603960f91b6064820152608401610a88565b4361167a866032614a73565b10156116bc5760405162461bcd60e51b815260206004820152601160248201527014da59db985d1d5c9948195e1c1a5c9959607a1b6044820152606401610a88565b6001600160a01b038116600090815260ff602090815260408083208a845290915290208690556116ea611bcd565b6001600160a01b031663a9059cbb82886040518363ffffffff1660e01b8152600401611717929190614661565b602060405180830381600087803b15801561173157600080fd5b505af1158015611745573d6000803e3d6000fd5b505050506040513d601f19601f8201168201806040525081019061176991906146e9565b50806001600160a01b0316877f129e7da771f6fd5560862f5cdf68575fe95e3fd6ab7910eb160667098eb0d2fe88604051610cf391815260200190565b60fc60205282600052604060002060205281600052604060002081815481106117ce57600080fd5b9060005260206000200160009250925050505481565b610101602052816000526040600020818154811061180157600080fd5b90600052602060002001600091509150505481565b610102546040805163238ac93360e01b815290516000926001600160a01b03169163238ac933916004808301926020929190829003018186803b15801561185c57600080fd5b505afa158015611870573d6000803e3d6000fd5b505050506040513d601f19601f820116820180604052508101906118949190614a8b565b905090565b806118a2612285565b81106118c05760405162461bcd60e51b8152600401610a889061462f565b60006118cb836109d8565b905033600282610100015160038111156118e7576118e7613ee0565b146119045760405162461bcd60e51b8152600401610a88906149ea565b6001600160a01b038116600090815260ff60209081526040808320878452909152902054156119455760405162461bcd60e51b8152600401610a8890614a30565b60006119518286612918565b9050600081116119a35760405162461bcd60e51b815260206004820152601f60248201527f42657474696e673a204e6f20636f6d6d697373696f6e20746f20636c61696d006044820152606401610a88565b6001600160a01b038216600090815260ff6020908152604080832088845290915290208190556119d1611bcd565b6001600160a01b031663a9059cbb83836040518363ffffffff1660e01b81526004016119fe929190614661565b602060405180830381600087803b158015611a1857600080fd5b505af1158015611a2c573d6000803e3d6000fd5b505050506040513d601f19601f82011682018060405250810190611a5091906146e9565b50611a5c828683613419565b50816001600160a01b0316857f129e7da771f6fd5560862f5cdf68575fe95e3fd6ab7910eb160667098eb0d2fe83604051611a9991815260200190565b60405180910390a35050505050565b600091825260c9602090815260408084206001600160a01b0393909316845291905290205460ff1690565b600080600080611ae285611b52565b6040805160008152602081018083528b905260ff8316918101919091526060810184905260808101839052929550909350915060019060a0016020604051602081039080840390855afa158015611b3d573d6000803e3d6000fd5b5050604051601f190151979650505050505050565b60008060008351604114611ba35760405162461bcd60e51b81526020600482015260186024820152770d2dcecc2d8d2c840e6d2cedcc2e8eae4ca40d8cadccee8d60431b6044820152606401610a88565b50505060208101516040820151606090920151909260009190911a90565b6000610d628383612f48565b6101025460408051631323e88b60e01b815290516000926001600160a01b031691631323e88b916004808301926020929190829003018186803b15801561185c57600080fd5b6001600160a01b038216600090815260fd60209081526040808320848452909152812054819081908190611c47878761344f565b611c5191906147ea565b6001600160a01b038716600090815260fe6020908152604080832089845290915281205491925090611c838888612f48565b611c8d91906147ea565b6001600160a01b038816600090815260ff602090815260408083208a845290915281205491925090611cbf8989612918565b611cc991906147ea565b92989197509195509350505050565b600054610100900460ff1615808015611cf85750600054600160ff909116105b80611d195750611d073061365f565b158015611d19575060005460ff166001145b611d7c5760405162461bcd60e51b815260206004820152602e60248201527f496e697469616c697a61626c653a20636f6e747261637420697320616c72656160448201526d191e481a5b9a5d1a585b1a5e995960921b6064820152608401610a88565b6000805460ff191660011790558015611d9f576000805461ff0019166101001790555b611da761366e565b61010280546001600160a01b0319166001600160a01b038416179055611ddb600080516020614c95833981519152336136db565b611de66000336136db565b8015610f28576000805461ff0019169055604051600181527f7f26b83ff96e1f2b6a682f133852f6798a09c465da95921460cefb38474024989060200160405180910390a15050565b80611e38612285565b8110611e565760405162461bcd60e51b8152600401610a889061462f565b6000611e61836109d8565b905060003390506000611e7a8284610120015151613190565b905060008361018001516001600160a01b0316634e1273f4838661012001516040518363ffffffff1660e01b8152600401611eb692919061492a565b60006040518083038186803b158015611ece57600080fd5b505afa158015611ee2573d6000803e3d6000fd5b505050506040513d6000823e601f3d908101601f19168201604052611f0a9190810190614980565b905060028461010001516003811115611f2557611f25613ee0565b14611f815760405162461bcd60e51b815260206004820152602660248201527f42657474696e673a20506f6f6c207374617475732073686f756c6420626520446044820152651958da59195960d21b6064820152608401610a88565b6001600160a01b038316600090815260fd6020908152604080832089845290915290205415611ff25760405162461bcd60e51b815260206004820152601f60248201527f42657474696e673a205061796f757420616c726561647920636c61696d6564006044820152606401610a88565b6000611ffe848861344f565b90506000811161204e5760405162461bcd60e51b815260206004820152601b60248201527a42657474696e673a204e6f207061796f757420746f20636c61696d60281b6044820152606401610a88565b6001600160a01b03808516600090815260fd602090815260408083208b8452909152902082905561018086015116632eb2c2d68561208a611816565b886101200151866040518563ffffffff1660e01b81526004016120b09493929190614aa8565b600060405180830381600087803b1580156120ca57600080fd5b505af11580156120de573d6000803e3d6000fd5b505050506120ea611bcd565b6001600160a01b031663a9059cbb85836040518363ffffffff1660e01b8152600401612117929190614661565b602060405180830381600087803b15801561213157600080fd5b505af1158015612145573d6000803e3d6000fd5b505050506040513d601f19601f8201168201806040525081019061216991906146e9565b506121758488836136e5565b50836001600160a01b0316877f5380cf6fe903b40c6d5a9e0dfbca2f3a423f0a21520b4d5947ed5169bdba946d83604051610cf391815260200190565b60006121bf84848461371b565b949350505050565b600081815260fc602090815260408083206001600160a01b038616845282529182902080548351818402810184019094528084526060939283018282801561222e57602002820191906000526020600020905b81548152602001906001019080831161221a575b5050505050905092915050565b6040516001600160601b0319606085901b16602082015260348101839052605481018290526000906074016040516020818303038152906040528051906020012090509392505050565b61010254604080516369fff33d60e11b815290516000926001600160a01b03169163d3ffe67a916004808301926020929190829003018186803b1580156122cb57600080fd5b505afa1580156122df573d6000803e3d6000fd5b505050506040513d601f19601f82011682018060405250810190611894919061467a565b600082815260c9602052604090206001015461231e81612c73565b610d8e8383612d03565b6000610d62838361344f565b8261233d612285565b811061235b5760405162461bcd60e51b8152600401610a889061462f565b6000612366856109d8565b90506001816101000151600381111561238157612381613ee0565b146123dd5760405162461bcd60e51b815260206004820152602660248201527f42657474696e673a20506f6f6c207374617475732073686f756c6420626520436044820152651c99585d195960d21b6064820152608401610a88565b61271083101561243a5760405162461bcd60e51b815260206004820152602260248201527f416d6f756e742073686f756c64206265206d6f7265207468616e204d494e5f42604482015261115560f21b6064820152608401610a88565b6000612446868661287c565b905060008160400151600181111561246057612460613ee0565b146124bc5760405162461bcd60e51b815260206004820152602660248201527f42657474696e673a205465616d207374617475732073686f756c6420626520436044820152651c99585d195960d21b6064820152608401610a88565b60fb54606083015133906000901561256b576124d787612f18565b9050604051806060016040528082815260200186608001518152602001836001600160a01b031681525061010060008b81526020019081526020016000206000858152602001908152602001600020600082015181600001556020820151816001015560408201518160020160006101000a8154816001600160a01b0302191690836001600160a01b031602179055509050505b6040805160c08101825284815260208082018c81528284018c8152606084018c81526001600160a01b03888116608087018181524260a0890190815260fb80546001808201835560009283529a517f3e7257b7272bb46d49cd6019b04ddee20da7c0cb13f7c1ec3391291b2ccebabc60069092029182015597517f3e7257b7272bb46d49cd6019b04ddee20da7c0cb13f7c1ec3391291b2ccebabd89015595517f3e7257b7272bb46d49cd6019b04ddee20da7c0cb13f7c1ec3391291b2ccebabe88015593517f3e7257b7272bb46d49cd6019b04ddee20da7c0cb13f7c1ec3391291b2ccebabf870155517f3e7257b7272bb46d49cd6019b04ddee20da7c0cb13f7c1ec3391291b2ccebac0860180546001600160a01b031916919093161790915590517f3e7257b7272bb46d49cd6019b04ddee20da7c0cb13f7c1ec3391291b2ccebac1909301929092558d815260fc83528481209181529082529283208054928301815583528220018490556126e38289614a73565b90506126ed611bcd565b6040516323b872dd60e01b81526001600160a01b0385811660048301523060248301526044820184905291909116906323b872dd90606401602060405180830381600087803b15801561273f57600080fd5b505af1158015612753573d6000803e3d6000fd5b505050506040513d601f19601f8201168201806040525081019061277791906146e9565b5061018086015160405163731133e960e01b81526001600160a01b038581166004830152602482018c9052604482018b905260806064830152600060848301529091169063731133e99060a401600060405180830381600087803b1580156127de57600080fd5b505af11580156127f2573d6000803e3d6000fd5b50505050612803838b8b8b866137fe565b5060008a815261010160209081526040808320805460018101825590845291909220018590555189906001600160a01b038516908c907f1b8a9031cb9351278d70a994f81536e9e08c91162e64f92b2fe4766fb7a891b490612868908d815260200190565b60405180910390a450505050505050505050565b612884613e14565b610102546040516339da225b60e21b815260048101859052602481018490526001600160a01b039091169063e768896c9060440160006040518083038186803b1580156128d057600080fd5b505afa1580156128e4573d6000803e3d6000fd5b505050506040513d6000823e601f3d908101601f19168201604052610d629190810190614b03565b6000610d6283836138a5565b600080612924836109d8565b600084815260fc602090815260408083206001600160a01b038916845282528083208054825181850281018501909352808352949550929390929183018282801561298e57602002820191906000526020600020905b81548152602001906001019080831161297a575b505050505090508051600014156129aa576000925050506109d2565b60008060005b60008781526101016020526040902054811015612a3257836000815181106129da576129da61470b565b602002602001015161010160008981526020019081526020016000208281548110612a0757612a0761470b565b90600052602060002001541415612a2057809150612a32565b80612a2a81614737565b9150506129b0565b50600060fb84600081518110612a4a57612a4a61470b565b602002602001015181548110612a6257612a6261470b565b600091825260208083206040805160c0810182526006909402909101805484526001808201549385019390935260028101549184019190915260038101546060840181905260048201546001600160a01b0316608085015260059091015460a0840152919350909190612ad6908590614a73565b90505b60008981526101016020526040902054811015612c5a57600089815261010160205260408120805483908110612b1157612b1161470b565b60009182526020808320909101548c835261010082526040808420828552835292839020835160608101855281548152600182015493810193909352600201546001600160a01b0316928201839052925090612b6e575050612c48565b600060fb8381548110612b8357612b8361470b565b60009182526020918290206040805160c0810182526006909302909101805483526001810154838501526002810154918301919091526003810154606083015260048101546001600160a01b031660808301526005015460a082015290830151835191925090612bf4606488614b37565b612bfe9190614b37565b612c089190614b56565b612c129089614a73565b97508c6001600160a01b031681608001516001600160a01b03161415612c44576060810151612c419086614a73565b94505b5050505b80612c5281614737565b915050612ad9565b50612c66606485614b56565b9998505050505050505050565b610ff28133613971565b612c878282611aa8565b610f2857600082815260c9602090815260408083206001600160a01b03851684529091529020805460ff19166001179055612cbf3390565b6001600160a01b0316816001600160a01b0316837f2f8788117e7eff1d82e926ec794901d17c78024a50270940304540a733656f0d60405160405180910390a45050565b612d0d8282611aa8565b15610f2857600082815260c9602090815260408083206001600160a01b0385168085529252808320805460ff1916905551339285917ff6391f5c32d9c69d2a47ea670b442974b53935d1edc7fd64eb21e047a839171b9190a45050565b600080516020614c4e833981519152546001600160a01b031690565b600080516020614c95833981519152610f2881612c73565b7f4910fdfa16fed3260ed0e7147f7cc6da11a60208b5b9406d12a635614ffd91435460ff1615612dd157610d8e836139d5565b826001600160a01b03166352d1902d6040518163ffffffff1660e01b815260040160206040518083038186803b158015612e0a57600080fd5b505afa925050508015612e3a575060408051601f3d908101601f19168201909252612e379181019061467a565b60015b612e9d5760405162461bcd60e51b815260206004820152602e60248201527f45524331393637557067726164653a206e657720696d706c656d656e7461746960448201526d6f6e206973206e6f74205555505360901b6064820152608401610a88565b600080516020614c4e8339815191528114612f0c5760405162461bcd60e51b815260206004820152602960248201527f45524331393637557067726164653a20756e737570706f727465642070726f786044820152681a58589b195555525160ba1b6064820152608401610a88565b50610d8e838383613a6f565b6000606461271081612f2a8186614b37565b612f349190614b37565b612f3e9190614b56565b6109d29190614b56565b600080612f54836109d8565b905060038161010001516003811115612f6f57612f6f613ee0565b14612f7e5760009150506109d2565b6000612f8e858360200151613190565b90506000612f9b8561322e565b905060008361018001516001600160a01b0316634e1273f484846040518363ffffffff1660e01b8152600401612fd292919061492a565b60006040518083038186803b158015612fea57600080fd5b505afa158015612ffe573d6000803e3d6000fd5b505050506040513d6000823e601f3d908101601f191682016040526130269190810190614980565b600087815260fc602090815260408083206001600160a01b038c16845282528083208054825181850281018501909352808352949550929390929183018282801561309057602002820191906000526020600020905b81548152602001906001019080831161307c575b505050505090506000805b83518160ff1610156130e357838160ff16815181106130bc576130bc61470b565b6020026020010151826130cf9190614a73565b9150806130db81614b78565b91505061309b565b5060005b825181101561318357600089815261010060205260408120845182908690859081106131155761311561470b565b6020908102919091018101518252818101929092526040908101600020815160608101835281548082526001830154948201949094526002909101546001600160a01b031691810191909152915061316d9084614a73565b925050808061317b90614737565b9150506130e7565b5098975050505050505050565b60606000826001600160401b038111156131ac576131ac614185565b6040519080825280602002602001820160405280156131d5578160200160208202803683370190505b50905060005b838160ff1610156132265784828260ff16815181106131fc576131fc61470b565b6001600160a01b03909216602092830291909101909101528061321e81614b78565b9150506131db565b509392505050565b6060600061323b836109d8565b9050600081602001516001600160401b0381111561325b5761325b614185565b604051908082528060200260200182016040528015613284578160200160208202803683370190505b50905060005b826020015181101561322657808282815181106132a9576132a961470b565b6020908102919091010152806132be81614737565b91505061328a565b6101025460405163b1684e5960e01b81526000916001600160a01b03169063b1684e59906132fc908790879087906004016146c8565b602060405180830381600087803b15801561331657600080fd5b505af115801561332a573d6000803e3d6000fd5b505050506040513d601f19601f820116820180604052508101906121bf91906146e9565b600061335b85858561223b565b6040517f19457468657265756d205369676e6564204d6573736167653a0a3332000000006020820152603c8101829052909150600090605c016040516020818303038152906040528051906020012090506133b4611816565b6001600160a01b03166133c78285611ad3565b6001600160a01b0316146134115760405162461bcd60e51b8152602060048201526011602482015270496e76616c6964207369676e617475726560781b6044820152606401610a88565b505050505050565b61010254604051632b263ab760e01b81526000916001600160a01b031690632b263ab7906132fc908790879087906004016146c8565b60008061345b836109d8565b90506002816101000151600381111561347657613476613ee0565b146134855760009150506109d2565b6000805b826101200151518110156136445760008361018001516001600160a01b031663bd85b03985610120015184815181106134c4576134c461470b565b60200260200101516040518263ffffffff1660e01b81526004016134ea91815260200190565b60206040518083038186803b15801561350257600080fd5b505afa158015613516573d6000803e3d6000fd5b505050506040513d601f19601f8201168201806040525081019061353a919061467a565b90508061354e5760009450505050506109d2565b60008461018001516001600160a01b031662fdd58e89876101200151868151811061357b5761357b61470b565b60200260200101516040518363ffffffff1660e01b81526004016135a0929190614661565b60206040518083038186803b1580156135b857600080fd5b505afa1580156135cc573d6000803e3d6000fd5b505050506040513d601f19601f820116820180604052508101906135f0919061467a565b905080828284886080015161360591906147ea565b61360f9190614b37565b6136199190614b56565b6136239086614a73565b61362d9190614a73565b93505050808061363c90614737565b915050613489565b50610120820151516136569082614b56565b95945050505050565b6001600160a01b03163b151590565b600054610100900460ff166136d95760405162461bcd60e51b815260206004820152602b60248201527f496e697469616c697a61626c653a20636f6e7472616374206973206e6f74206960448201526a6e697469616c697a696e6760a81b6064820152608401610a88565b565b610f288282612c7d565b61010254604051634b874c1560e11b81526000916001600160a01b03169063970e982a906132fc908790879087906004016146c8565b600080613727856109d8565b905060008161018001516001600160a01b031663bd85b039866040518263ffffffff1660e01b815260040161375e91815260200190565b60206040518083038186803b15801561377657600080fd5b505afa15801561378a573d6000803e3d6000fd5b505050506040513d601f19601f820116820180604052508101906137ae919061467a565b905060006137bc8583614a73565b9150819050806064828786608001516137d59190614a73565b6137df91906147ea565b6137e99190614b37565b6137f39190614b56565b979650505050505050565b61010254604051636905915960e11b81526001600160a01b03878116600483015260248201879052604482018690526064820185905260848201849052600092169063d20b22b29060a401602060405180830381600087803b15801561386357600080fd5b505af1158015613877573d6000803e3d6000fd5b505050506040513d601f19601f8201168201806040525081019061389b91906146e9565b9695505050505050565b6000806138b1846109d8565b905060008161018001516001600160a01b031663bd85b039856040518263ffffffff1660e01b81526004016138e891815260200190565b60206040518083038186803b15801561390057600080fd5b505afa158015613914573d6000803e3d6000fd5b505050506040513d601f19601f82011682018060405250810190613938919061467a565b90508061394a576000925050506109d2565b80606482846080015161395d91906147ea565b6139679190614b37565b6136569190614b56565b61397b8282611aa8565b610f2857613993816001600160a01b03166014613a9a565b61399e836020613a9a565b6040516020016139af929190614b98565b60408051601f198184030181529082905262461bcd60e51b8252610a8891600401614c07565b6139de8161365f565b613a405760405162461bcd60e51b815260206004820152602d60248201527f455243313936373a206e657720696d706c656d656e746174696f6e206973206e60448201526c1bdd08184818dbdb9d1c9858dd609a1b6064820152608401610a88565b600080516020614c4e83398151915280546001600160a01b0319166001600160a01b0392909216919091179055565b613a7883613c35565b600082511180613a855750805b15610d8e57613a948383613c75565b50505050565b60606000613aa9836002614b37565b613ab4906002614a73565b6001600160401b03811115613acb57613acb614185565b6040519080825280601f01601f191660200182016040528015613af5576020820181803683370190505b509050600360fc1b81600081518110613b1057613b1061470b565b60200101906001600160f81b031916908160001a905350600f60fb1b81600181518110613b3f57613b3f61470b565b60200101906001600160f81b031916908160001a9053506000613b63846002614b37565b613b6e906001614a73565b90505b6001811115613be6576f181899199a1a9b1b9c1cb0b131b232b360811b85600f1660108110613ba257613ba261470b565b1a60f81b828281518110613bb857613bb861470b565b60200101906001600160f81b031916908160001a90535060049490941c93613bdf81614c1a565b9050613b71565b508315610d625760405162461bcd60e51b815260206004820181905260248201527f537472696e67733a20686578206c656e67746820696e73756666696369656e746044820152606401610a88565b613c3e816139d5565b6040516001600160a01b038216907fbc7cd75a20ee27fd9adebab32041f755214dbc6bffa90cc0225b39da2e5c2d3b90600090a250565b6060613c808361365f565b613cdb5760405162461bcd60e51b815260206004820152602660248201527f416464726573733a2064656c65676174652063616c6c20746f206e6f6e2d636f6044820152651b9d1c9858dd60d21b6064820152608401610a88565b600080846001600160a01b031684604051613cf69190614c31565b600060405180830381855af49150503d8060008114613d31576040519150601f19603f3d011682016040523d82523d6000602084013e613d36565b606091505b50915091506136568282604051806060016040528060278152602001614c6e6027913960608315613d68575081610d62565b825115613d785782518084602001fd5b8160405162461bcd60e51b8152600401610a889190614c07565b604051806101a00160405280600081526020016000815260200160608152602001600081526020016000815260200160008152602001600081526020016000815260200160006003811115613de957613de9613ee0565b815260200160608152602001600081526020016000815260200160006001600160a01b031681525090565b6040518060600160405280600081526020016060815260200160006001811115613e4057613e40613ee0565b905290565b600060208284031215613e5757600080fd5b81356001600160e01b031981168114610d6257600080fd5b600060208284031215613e8157600080fd5b5035919050565b60005b83811015613ea3578181015183820152602001613e8b565b83811115613a945750506000910152565b60008151808452613ecc816020860160208601613e88565b601f01601f19169290920160200192915050565b634e487b7160e01b600052602160045260246000fd5b60048110613f0657613f06613ee0565b9052565b600081518084526020808501945080840160005b83811015613f3a57815187529582019590820190600101613f1e565b509495945050505050565b602081528151602082015260208201516040820152600060408301516101a0806060850152613f786101c0850183613eb4565b915060608501516080850152608085015160a085015260a085015160c085015260c085015160e085015260e0850151610100818187015280870151915050610120613fc581870183613ef6565b80870151915050610140601f198685030181870152613fe48483613f0a565b908701516101608781019190915287015161018080880191909152909601516001600160a01b03169190940152509192915050565b6000806040838503121561402c57600080fd5b50508035926020909101359150565b6001600160a01b0381168114610ff257600080fd5b6000806040838503121561406357600080fd5b823561406e8161403b565b946020939093013593505050565b6000806040838503121561408f57600080fd5b8235915060208301356140a18161403b565b809150509250929050565b602081526000610d626020830184613f0a565b6000602082840312156140d157600080fd5b8135610d628161403b565b8051825260006020820151606060208501526140fb6060850182613eb4565b905060408301516002811061411257614112613ee0565b806040860152508091505092915050565b6000602080830181845280855180835260408601915060408160051b870101925083870160005b8281101561417857603f198886030184526141668583516140dc565b9450928501929085019060010161414a565b5092979650505050505050565b634e487b7160e01b600052604160045260246000fd5b6040516101a081016001600160401b03811182821017156141be576141be614185565b60405290565b604051601f8201601f191681016001600160401b03811182821017156141ec576141ec614185565b604052919050565b60006001600160401b0382111561420d5761420d614185565b50601f01601f191660200190565b600082601f83011261422c57600080fd5b813561423f61423a826141f4565b6141c4565b81815284602083860101111561425457600080fd5b816020850160208301376000918101602001919091529392505050565b6000806040838503121561428457600080fd5b823561428f8161403b565b915060208301356001600160401b038111156142aa57600080fd5b6142b68582860161421b565b9150509250929050565b600080600080608085870312156142d657600080fd5b84359350602085013592506040850135915060608501356001600160401b0381111561430157600080fd5b61430d8782880161421b565b91505092959194509250565b60008060006060848603121561432e57600080fd5b8335925060208401356143408161403b565b929592945050506040919091013590565b6000806040838503121561436457600080fd5b8235915060208301356001600160401b038111156142aa57600080fd5b60006020828403121561439357600080fd5b81356001600160401b038111156143a957600080fd5b6121bf8482850161421b565b6000806000606084860312156143ca57600080fd5b505081359360208301359350604090920135919050565b6000806000606084860312156143f657600080fd5b83356144018161403b565b95602085013595506040909401359392505050565b602081526000610d6260208301846140dc565b600082601f83011261443a57600080fd5b815161444861423a826141f4565b81815284602083860101111561445d57600080fd5b6121bf826020830160208701613e88565b80516004811061447d57600080fd5b919050565b60006001600160401b0382111561449b5761449b614185565b5060051b60200190565b600082601f8301126144b657600080fd5b815160206144c661423a83614482565b82815260059290921b840181019181810190868411156144e557600080fd5b8286015b8481101561450057805183529183019183016144e9565b509695505050505050565b805161447d8161403b565b60006020828403121561452857600080fd5b81516001600160401b038082111561453f57600080fd5b908301906101a0828603121561455457600080fd5b61455c61419b565b825181526020830151602082015260408301518281111561457c57600080fd5b61458887828601614429565b604083015250606083015160608201526080830151608082015260a083015160a082015260c083015160c082015260e083015160e08201526101006145ce81850161446e565b9082015261012083810151838111156145e657600080fd5b6145f2888287016144a5565b918301919091525061014083810151908201526101608084015190820152610180915061462082840161450b565b91810191909152949350505050565b60208082526018908201527710995d1d1a5b99ce881259081a5cc81b9bdd081d985b1a5960421b604082015260600190565b6001600160a01b03929092168252602082015260400190565b60006020828403121561468c57600080fd5b5051919050565b6020808252601b908201527a42657474696e673a204e6f20726566756e6420746f20636c61696d60281b604082015260600190565b6001600160a01b039390931683526020830191909152604082015260600190565b6000602082840312156146fb57600080fd5b81518015158114610d6257600080fd5b634e487b7160e01b600052603260045260246000fd5b634e487b7160e01b600052601160045260246000fd5b600060001982141561474b5761474b614721565b5060010190565b6020808252602c908201527f46756e6374696f6e206d7573742062652063616c6c6564207468726f7567682060408201526b19195b1959d85d1958d85b1b60a21b606082015260800190565b6020808252602c908201527f46756e6374696f6e206d7573742062652063616c6c6564207468726f7567682060408201526b6163746976652070726f787960a01b606082015260800190565b6000828210156147fc576147fc614721565b500390565b60006060828403121561481357600080fd5b604051606081016001600160401b03828210818311171561483657614836614185565b8160405282935084518352602085015191508082111561485557600080fd5b5061486285828601614429565b60208301525060408301516002811061487a57600080fd5b6040919091015292915050565b6000602080838503121561489a57600080fd5b82516001600160401b03808211156148b157600080fd5b818501915085601f8301126148c557600080fd5b81516148d361423a82614482565b81815260059190911b830184019084810190888311156148f257600080fd5b8585015b838110156131835780518581111561490e5760008081fd5b61491c8b89838a0101614801565b8452509186019186016148f6565b604080825283519082018190526000906020906060840190828701845b8281101561496c5781516001600160a01b031684529284019290840190600101614947565b5050508381038285015261389b8186613f0a565b60006020828403121561499257600080fd5b81516001600160401b038111156149a857600080fd5b6121bf848285016144a5565b6001600160a01b03841681526060602082018190526000906149d890830185613f0a565b828103604084015261389b8185613f0a565b60208082526026908201527f42657474696e673a20506f6f6c207374617475732073686f756c6420626520446040820152651958da58d95960d21b606082015260800190565b60208082526023908201527f42657474696e673a20436f6d6d697373696f6e20616c726561647920636c61696040820152621b595960ea1b606082015260800190565b60008219821115614a8657614a86614721565b500190565b600060208284031215614a9d57600080fd5b8151610d628161403b565b6001600160a01b0385811682528416602082015260a060408201819052600090614ad490830185613f0a565b8281036060840152614ae68185613f0a565b838103608090940193909352505060008152602001949350505050565b600060208284031215614b1557600080fd5b81516001600160401b03811115614b2b57600080fd5b6121bf84828501614801565b6000816000190483118215151615614b5157614b51614721565b500290565b600082614b7357634e487b7160e01b600052601260045260246000fd5b500490565b600060ff821660ff811415614b8f57614b8f614721565b60010192915050565b76020b1b1b2b9b9a1b7b73a3937b61d1030b1b1b7bab73a1604d1b815260008351614bca816017850160208801613e88565b7001034b99036b4b9b9b4b733903937b6329607d1b6017918401918201528351614bfb816028840160208801613e88565b01602801949350505050565b602081526000610d626020830184613eb4565b600081614c2957614c29614721565b506000190190565b60008251614c43818460208701613e88565b919091019291505056fe360894a13ba1a3210667c828492db98dca3e2076cc3735a920a3ca505d382bbc416464726573733a206c6f772d6c6576656c2064656c65676174652063616c6c206661696c6564a49807205ce4d355092ef5a8a18f56e8913cf4a201fbe287825b095693c21775a264697066735822122002b0cadcbcb44c44c16663163fcdf7ad12ee7c713dbf4fe68146c358d4bf088f64736f6c63430008090033",
  "linkReferences": {},
  "deployedLinkReferences": {}
}