{
  "_format": "hh-sol-artifact-1",
  "contractName": "BettingAdmin",
  "sourceName": "contracts/admin/BettingAdmin.sol",
  "abi": [
    {
      "anonymous": false,
      "inputs": [
        {
          "indexed": false,
          "internalType": "address",
          "name": "previousAdmin",
          "type": "address"
        },
        {
          "indexed": false,
          "internalType": "address",
          "name": "newAdmin",
          "type": "address"
        }
      ],
      "name": "AdminChanged",
      "type": "event"
    },
    {
      "anonymous": false,
      "inputs": [
        {
          "indexed": true,
          "internalType": "address",
          "name": "beacon",
          "type": "address"
        }
      ],
      "name": "BeaconUpgraded",
      "type": "event"
    },
    {
      "anonymous": false,
      "inputs": [
        {
          "indexed": true,
          "internalType": "uint256",
          "name": "poolId",
          "type": "uint256"
        },
        {
          "indexed": false,
          "internalType": "uint256",
          "name": "amount",
          "type": "uint256"
        }
      ],
      "name": "CommissionTransferredToVault",
      "type": "event"
    },
    {
      "anonymous": false,
      "inputs": [
        {
          "indexed": false,
          "internalType": "uint8",
          "name": "version",
          "type": "uint8"
        }
      ],
      "name": "Initialized",
      "type": "event"
    },
    {
      "anonymous": false,
      "inputs": [
        {
          "indexed": true,
          "internalType": "uint256",
          "name": "poolId",
          "type": "uint256"
        },
        {
          "indexed": false,
          "internalType": "uint256",
          "name": "amount",
          "type": "uint256"
        }
      ],
      "name": "PayoutTransferredToVault",
      "type": "event"
    },
    {
      "anonymous": false,
      "inputs": [
        {
          "indexed": true,
          "internalType": "uint256",
          "name": "poolId",
          "type": "uint256"
        }
      ],
      "name": "PoolCanceled",
      "type": "event"
    },
    {
      "anonymous": false,
      "inputs": [
        {
          "indexed": true,
          "internalType": "uint256",
          "name": "poolId",
          "type": "uint256"
        },
        {
          "indexed": false,
          "internalType": "uint256",
          "name": "numberOfTeams",
          "type": "uint256"
        },
        {
          "indexed": false,
          "internalType": "uint256",
          "name": "startTime",
          "type": "uint256"
        }
      ],
      "name": "PoolCreated",
      "type": "event"
    },
    {
      "anonymous": false,
      "inputs": [
        {
          "indexed": true,
          "internalType": "uint256",
          "name": "poolId",
          "type": "uint256"
        },
        {
          "indexed": false,
          "internalType": "uint256[]",
          "name": "winnerId",
          "type": "uint256[]"
        }
      ],
      "name": "PoolGraded",
      "type": "event"
    },
    {
      "anonymous": false,
      "inputs": [
        {
          "indexed": true,
          "internalType": "uint256",
          "name": "poolId",
          "type": "uint256"
        }
      ],
      "name": "PoolStarted",
      "type": "event"
    },
    {
      "anonymous": false,
      "inputs": [
        {
          "indexed": true,
          "internalType": "bytes32",
          "name": "role",
          "type": "bytes32"
        },
        {
          "indexed": true,
          "internalType": "bytes32",
          "name": "previousAdminRole",
          "type": "bytes32"
        },
        {
          "indexed": true,
          "internalType": "bytes32",
          "name": "newAdminRole",
          "type": "bytes32"
        }
      ],
      "name": "RoleAdminChanged",
      "type": "event"
    },
    {
      "anonymous": false,
      "inputs": [
        {
          "indexed": true,
          "internalType": "bytes32",
          "name": "role",
          "type": "bytes32"
        },
        {
          "indexed": true,
          "internalType": "address",
          "name": "account",
          "type": "address"
        },
        {
          "indexed": true,
          "internalType": "address",
          "name": "sender",
          "type": "address"
        }
      ],
      "name": "RoleGranted",
      "type": "event"
    },
    {
      "anonymous": false,
      "inputs": [
        {
          "indexed": true,
          "internalType": "bytes32",
          "name": "role",
          "type": "bytes32"
        },
        {
          "indexed": true,
          "internalType": "address",
          "name": "account",
          "type": "address"
        },
        {
          "indexed": true,
          "internalType": "address",
          "name": "sender",
          "type": "address"
        }
      ],
      "name": "RoleRevoked",
      "type": "event"
    },
    {
      "anonymous": false,
      "inputs": [
        {
          "indexed": true,
          "internalType": "uint256",
          "name": "poolId",
          "type": "uint256"
        },
        {
          "indexed": false,
          "internalType": "uint256",
          "name": "teamId",
          "type": "uint256"
        }
      ],
      "name": "TeamAdded",
      "type": "event"
    },
    {
      "anonymous": false,
      "inputs": [
        {
          "indexed": true,
          "internalType": "uint256",
          "name": "poolId",
          "type": "uint256"
        },
        {
          "indexed": false,
          "internalType": "uint256",
          "name": "teamId",
          "type": "uint256"
        }
      ],
      "name": "TeamRemoved",
      "type": "event"
    },
    {
      "anonymous": false,
      "inputs": [
        {
          "indexed": true,
          "internalType": "address",
          "name": "implementation",
          "type": "address"
        }
      ],
      "name": "Upgraded",
      "type": "event"
    },
    {
      "inputs": [],
      "name": "ADMIN_ROLE",
      "outputs": [
        {
          "internalType": "bytes32",
          "name": "",
          "type": "bytes32"
        }
      ],
      "stateMutability": "view",
      "type": "function"
    },
    {
      "inputs": [],
      "name": "DEFAULT_ADMIN_ROLE",
      "outputs": [
        {
          "internalType": "bytes32",
          "name": "",
          "type": "bytes32"
        }
      ],
      "stateMutability": "view",
      "type": "function"
    },
    {
      "inputs": [],
      "name": "MULTISIG_ROLE",
      "outputs": [
        {
          "internalType": "bytes32",
          "name": "",
          "type": "bytes32"
        }
      ],
      "stateMutability": "view",
      "type": "function"
    },
    {
      "inputs": [
        {
          "internalType": "uint256",
          "name": "",
          "type": "uint256"
        }
      ],
      "name": "bets",
      "outputs": [
        {
          "internalType": "uint256",
          "name": "id",
          "type": "uint256"
        },
        {
          "internalType": "uint256",
          "name": "poolId",
          "type": "uint256"
        },
        {
          "internalType": "uint256",
          "name": "teamId",
          "type": "uint256"
        },
        {
          "internalType": "uint256",
          "name": "amount",
          "type": "uint256"
        },
        {
          "internalType": "address",
          "name": "player",
          "type": "address"
        },
        {
          "internalType": "uint256",
          "name": "createdAt",
          "type": "uint256"
        }
      ],
      "stateMutability": "view",
      "type": "function"
    },
    {
      "inputs": [],
      "name": "betting",
      "outputs": [
        {
          "internalType": "address",
          "name": "",
          "type": "address"
        }
      ],
      "stateMutability": "view",
      "type": "function"
    },
    {
      "inputs": [
        {
          "internalType": "uint256",
          "name": "poolId_",
          "type": "uint256"
        }
      ],
      "name": "cancelPool",
      "outputs": [],
      "stateMutability": "nonpayable",
      "type": "function"
    },
    {
      "inputs": [
        {
          "internalType": "address",
          "name": "player_",
          "type": "address"
        },
        {
          "internalType": "uint256",
          "name": "poolId_",
          "type": "uint256"
        },
        {
          "internalType": "uint256",
          "name": "amount_",
          "type": "uint256"
        }
      ],
      "name": "commissionClaimed",
      "outputs": [
        {
          "internalType": "bool",
          "name": "",
          "type": "bool"
        }
      ],
      "stateMutability": "nonpayable",
      "type": "function"
    },
    {
      "inputs": [
        {
          "internalType": "uint256",
          "name": "numberOfTeams_",
          "type": "uint256"
        },
        {
          "internalType": "string",
          "name": "eventName_",
          "type": "string"
        },
        {
          "internalType": "uint256",
          "name": "startTime_",
          "type": "uint256"
        },
        {
          "internalType": "uint256",
          "name": "duration_",
          "type": "uint256"
        },
        {
          "internalType": "address",
          "name": "mint_",
          "type": "address"
        },
        {
          "components": [
            {
              "internalType": "uint256",
              "name": "id",
              "type": "uint256"
            },
            {
              "internalType": "string",
              "name": "name",
              "type": "string"
            },
            {
              "internalType": "enum Storage.TeamStatus",
              "name": "status",
              "type": "uint8"
            }
          ],
          "internalType": "struct Storage.Team[]",
          "name": "teams_",
          "type": "tuple[]"
        }
      ],
      "name": "createPool",
      "outputs": [],
      "stateMutability": "nonpayable",
      "type": "function"
    },
    {
      "inputs": [
        {
          "internalType": "uint256",
          "name": "poolId_",
          "type": "uint256"
        },
        {
          "components": [
            {
              "internalType": "uint256",
              "name": "id",
              "type": "uint256"
            },
            {
              "internalType": "string",
              "name": "name",
              "type": "string"
            },
            {
              "internalType": "enum Storage.TeamStatus",
              "name": "status",
              "type": "uint8"
            }
          ],
          "internalType": "struct Storage.Team",
          "name": "team_",
          "type": "tuple"
        }
      ],
      "name": "createTeam",
      "outputs": [],
      "stateMutability": "nonpayable",
      "type": "function"
    },
    {
      "inputs": [
        {
          "internalType": "uint256",
          "name": "poolId_",
          "type": "uint256"
        }
      ],
      "name": "getPool",
      "outputs": [
        {
          "components": [
            {
              "internalType": "uint256",
              "name": "id",
              "type": "uint256"
            },
            {
              "internalType": "uint256",
              "name": "numberOfTeams",
              "type": "uint256"
            },
            {
              "internalType": "string",
              "name": "eventName",
              "type": "string"
            },
            {
              "internalType": "uint256",
              "name": "totalBets",
              "type": "uint256"
            },
            {
              "internalType": "uint256",
              "name": "totalAmount",
              "type": "uint256"
            },
            {
              "internalType": "uint256",
              "name": "payoutClaimed",
              "type": "uint256"
            },
            {
              "internalType": "uint256",
              "name": "totalCommissions",
              "type": "uint256"
            },
            {
              "internalType": "uint256",
              "name": "commissionsClaimed",
              "type": "uint256"
            },
            {
              "internalType": "enum Storage.PoolStatus",
              "name": "status",
              "type": "uint8"
            },
            {
              "internalType": "uint256[]",
              "name": "winners",
              "type": "uint256[]"
            },
            {
              "internalType": "uint256",
              "name": "startTime",
              "type": "uint256"
            },
            {
              "internalType": "uint256",
              "name": "endTime",
              "type": "uint256"
            },
            {
              "internalType": "contract IERC1155PresetMinterPauser",
              "name": "mintContract",
              "type": "address"
            }
          ],
          "internalType": "struct Storage.Pool",
          "name": "",
          "type": "tuple"
        }
      ],
      "stateMutability": "view",
      "type": "function"
    },
    {
      "inputs": [
        {
          "internalType": "uint256",
          "name": "poolId_",
          "type": "uint256"
        },
        {
          "internalType": "uint256",
          "name": "teamId_",
          "type": "uint256"
        }
      ],
      "name": "getPoolTeam",
      "outputs": [
        {
          "components": [
            {
              "internalType": "uint256",
              "name": "id",
              "type": "uint256"
            },
            {
              "internalType": "string",
              "name": "name",
              "type": "string"
            },
            {
              "internalType": "enum Storage.TeamStatus",
              "name": "status",
              "type": "uint8"
            }
          ],
          "internalType": "struct Storage.Team",
          "name": "",
          "type": "tuple"
        }
      ],
      "stateMutability": "view",
      "type": "function"
    },
    {
      "inputs": [
        {
          "internalType": "uint256",
          "name": "poolId_",
          "type": "uint256"
        }
      ],
      "name": "getPoolTeams",
      "outputs": [
        {
          "components": [
            {
              "internalType": "uint256",
              "name": "id",
              "type": "uint256"
            },
            {
              "internalType": "string",
              "name": "name",
              "type": "string"
            },
            {
              "internalType": "enum Storage.TeamStatus",
              "name": "status",
              "type": "uint8"
            }
          ],
          "internalType": "struct Storage.Team[]",
          "name": "",
          "type": "tuple[]"
        }
      ],
      "stateMutability": "view",
      "type": "function"
    },
    {
      "inputs": [
        {
          "internalType": "bytes32",
          "name": "role",
          "type": "bytes32"
        }
      ],
      "name": "getRoleAdmin",
      "outputs": [
        {
          "internalType": "bytes32",
          "name": "",
          "type": "bytes32"
        }
      ],
      "stateMutability": "view",
      "type": "function"
    },
    {
      "inputs": [],
      "name": "getTotalPools",
      "outputs": [
        {
          "internalType": "uint256",
          "name": "",
          "type": "uint256"
        }
      ],
      "stateMutability": "view",
      "type": "function"
    },
    {
      "inputs": [
        {
          "internalType": "uint256",
          "name": "poolId_",
          "type": "uint256"
        },
        {
          "internalType": "uint256",
          "name": "winnerId_",
          "type": "uint256"
        }
      ],
      "name": "gradePool",
      "outputs": [],
      "stateMutability": "nonpayable",
      "type": "function"
    },
    {
      "inputs": [
        {
          "internalType": "bytes32",
          "name": "role",
          "type": "bytes32"
        },
        {
          "internalType": "address",
          "name": "account",
          "type": "address"
        }
      ],
      "name": "grantRole",
      "outputs": [],
      "stateMutability": "nonpayable",
      "type": "function"
    },
    {
      "inputs": [
        {
          "internalType": "bytes32",
          "name": "role",
          "type": "bytes32"
        },
        {
          "internalType": "address",
          "name": "account",
          "type": "address"
        }
      ],
      "name": "hasRole",
      "outputs": [
        {
          "internalType": "bool",
          "name": "",
          "type": "bool"
        }
      ],
      "stateMutability": "view",
      "type": "function"
    },
    {
      "inputs": [
        {
          "internalType": "address",
          "name": "usdcContract_",
          "type": "address"
        },
        {
          "internalType": "address",
          "name": "vaultContract_",
          "type": "address"
        },
        {
          "internalType": "address",
          "name": "signer_",
          "type": "address"
        }
      ],
      "name": "initialize",
      "outputs": [],
      "stateMutability": "nonpayable",
      "type": "function"
    },
    {
      "inputs": [
        {
          "internalType": "uint256",
          "name": "poolId_",
          "type": "uint256"
        },
        {
          "internalType": "uint256[]",
          "name": "winnerIds_",
          "type": "uint256[]"
        }
      ],
      "name": "markPoolTie",
      "outputs": [],
      "stateMutability": "nonpayable",
      "type": "function"
    },
    {
      "inputs": [
        {
          "internalType": "address",
          "name": "player_",
          "type": "address"
        },
        {
          "internalType": "uint256",
          "name": "poolId_",
          "type": "uint256"
        },
        {
          "internalType": "uint256",
          "name": "amount_",
          "type": "uint256"
        }
      ],
      "name": "payoutClaimed",
      "outputs": [
        {
          "internalType": "bool",
          "name": "",
          "type": "bool"
        }
      ],
      "stateMutability": "nonpayable",
      "type": "function"
    },
    {
      "inputs": [
        {
          "internalType": "address",
          "name": "player_",
          "type": "address"
        },
        {
          "internalType": "uint256",
          "name": "poolId_",
          "type": "uint256"
        },
        {
          "internalType": "uint256",
          "name": "teamId_",
          "type": "uint256"
        },
        {
          "internalType": "uint256",
          "name": "amount_",
          "type": "uint256"
        },
        {
          "internalType": "uint256",
          "name": "commission_",
          "type": "uint256"
        }
      ],
      "name": "placeBet",
      "outputs": [
        {
          "internalType": "bool",
          "name": "",
          "type": "bool"
        }
      ],
      "stateMutability": "nonpayable",
      "type": "function"
    },
    {
      "inputs": [
        {
          "internalType": "uint256",
          "name": "",
          "type": "uint256"
        },
        {
          "internalType": "uint256",
          "name": "",
          "type": "uint256"
        }
      ],
      "name": "poolBets",
      "outputs": [
        {
          "internalType": "uint256",
          "name": "",
          "type": "uint256"
        }
      ],
      "stateMutability": "view",
      "type": "function"
    },
    {
      "inputs": [
        {
          "internalType": "uint256",
          "name": "",
          "type": "uint256"
        }
      ],
      "name": "poolStatus",
      "outputs": [
        {
          "internalType": "uint256",
          "name": "",
          "type": "uint256"
        }
      ],
      "stateMutability": "view",
      "type": "function"
    },
    {
      "inputs": [
        {
          "internalType": "uint256",
          "name": "",
          "type": "uint256"
        },
        {
          "internalType": "uint256",
          "name": "",
          "type": "uint256"
        }
      ],
      "name": "poolTeams",
      "outputs": [
        {
          "internalType": "uint256",
          "name": "id",
          "type": "uint256"
        },
        {
          "internalType": "string",
          "name": "name",
          "type": "string"
        },
        {
          "internalType": "enum Storage.TeamStatus",
          "name": "status",
          "type": "uint8"
        }
      ],
      "stateMutability": "view",
      "type": "function"
    },
    {
      "inputs": [
        {
          "internalType": "uint256",
          "name": "",
          "type": "uint256"
        }
      ],
      "name": "pools",
      "outputs": [
        {
          "internalType": "uint256",
          "name": "id",
          "type": "uint256"
        },
        {
          "internalType": "uint256",
          "name": "numberOfTeams",
          "type": "uint256"
        },
        {
          "internalType": "string",
          "name": "eventName",
          "type": "string"
        },
        {
          "internalType": "uint256",
          "name": "totalBets",
          "type": "uint256"
        },
        {
          "internalType": "uint256",
          "name": "totalAmount",
          "type": "uint256"
        },
        {
          "internalType": "uint256",
          "name": "payoutClaimed",
          "type": "uint256"
        },
        {
          "internalType": "uint256",
          "name": "totalCommissions",
          "type": "uint256"
        },
        {
          "internalType": "uint256",
          "name": "commissionsClaimed",
          "type": "uint256"
        },
        {
          "internalType": "enum Storage.PoolStatus",
          "name": "status",
          "type": "uint8"
        },
        {
          "internalType": "uint256",
          "name": "startTime",
          "type": "uint256"
        },
        {
          "internalType": "uint256",
          "name": "endTime",
          "type": "uint256"
        },
        {
          "internalType": "contract IERC1155PresetMinterPauser",
          "name": "mintContract",
          "type": "address"
        }
      ],
      "stateMutability": "view",
      "type": "function"
    },
    {
      "inputs": [],
      "name": "proxiableUUID",
      "outputs": [
        {
          "internalType": "bytes32",
          "name": "",
          "type": "bytes32"
        }
      ],
      "stateMutability": "view",
      "type": "function"
    },
    {
      "inputs": [
        {
          "internalType": "address",
          "name": "player_",
          "type": "address"
        },
        {
          "internalType": "uint256",
          "name": "poolId_",
          "type": "uint256"
        },
        {
          "internalType": "uint256",
          "name": "amount_",
          "type": "uint256"
        }
      ],
      "name": "refundClaimed",
      "outputs": [
        {
          "internalType": "bool",
          "name": "",
          "type": "bool"
        }
      ],
      "stateMutability": "nonpayable",
      "type": "function"
    },
    {
      "inputs": [
        {
          "internalType": "uint256",
          "name": "poolId_",
          "type": "uint256"
        },
        {
          "internalType": "uint256",
          "name": "teamId_",
          "type": "uint256"
        }
      ],
      "name": "refundTeam",
      "outputs": [],
      "stateMutability": "nonpayable",
      "type": "function"
    },
    {
      "inputs": [
        {
          "internalType": "bytes32",
          "name": "role",
          "type": "bytes32"
        },
        {
          "internalType": "address",
          "name": "account",
          "type": "address"
        }
      ],
      "name": "renounceRole",
      "outputs": [],
      "stateMutability": "nonpayable",
      "type": "function"
    },
    {
      "inputs": [
        {
          "internalType": "bytes32",
          "name": "role",
          "type": "bytes32"
        },
        {
          "internalType": "address",
          "name": "account",
          "type": "address"
        }
      ],
      "name": "revokeRole",
      "outputs": [],
      "stateMutability": "nonpayable",
      "type": "function"
    },
    {
      "inputs": [],
      "name": "signer",
      "outputs": [
        {
          "internalType": "address",
          "name": "",
          "type": "address"
        }
      ],
      "stateMutability": "view",
      "type": "function"
    },
    {
      "inputs": [
        {
          "internalType": "uint256",
          "name": "poolId_",
          "type": "uint256"
        }
      ],
      "name": "startPool",
      "outputs": [],
      "stateMutability": "nonpayable",
      "type": "function"
    },
    {
      "inputs": [
        {
          "internalType": "bytes4",
          "name": "interfaceId",
          "type": "bytes4"
        }
      ],
      "name": "supportsInterface",
      "outputs": [
        {
          "internalType": "bool",
          "name": "",
          "type": "bool"
        }
      ],
      "stateMutability": "view",
      "type": "function"
    },
    {
      "inputs": [
        {
          "internalType": "uint256",
          "name": "poolId_",
          "type": "uint256"
        }
      ],
      "name": "transferCommissionToVault",
      "outputs": [],
      "stateMutability": "nonpayable",
      "type": "function"
    },
    {
      "inputs": [
        {
          "internalType": "uint256",
          "name": "poolId_",
          "type": "uint256"
        }
      ],
      "name": "transferPayoutToVault",
      "outputs": [],
      "stateMutability": "nonpayable",
      "type": "function"
    },
    {
      "inputs": [
        {
          "internalType": "address",
          "name": "betting_",
          "type": "address"
        }
      ],
      "name": "updateBettingAddress",
      "outputs": [],
      "stateMutability": "nonpayable",
      "type": "function"
    },
    {
      "inputs": [
        {
          "internalType": "uint256",
          "name": "poolId_",
          "type": "uint256"
        },
        {
          "internalType": "uint256",
          "name": "startTime_",
          "type": "uint256"
        },
        {
          "internalType": "uint256",
          "name": "duration_",
          "type": "uint256"
        }
      ],
      "name": "updateStartTime",
      "outputs": [],
      "stateMutability": "nonpayable",
      "type": "function"
    },
    {
      "inputs": [
        {
          "internalType": "address",
          "name": "usdcContract_",
          "type": "address"
        }
      ],
      "name": "updateUsdcContract",
      "outputs": [],
      "stateMutability": "nonpayable",
      "type": "function"
    },
    {
      "inputs": [
        {
          "internalType": "address",
          "name": "vaultContract_",
          "type": "address"
        }
      ],
      "name": "updateVaultContract",
      "outputs": [],
      "stateMutability": "nonpayable",
      "type": "function"
    },
    {
      "inputs": [
        {
          "internalType": "address",
          "name": "signer_",
          "type": "address"
        }
      ],
      "name": "updateVeraSignerAddress",
      "outputs": [],
      "stateMutability": "nonpayable",
      "type": "function"
    },
    {
      "inputs": [
        {
          "internalType": "address",
          "name": "newImplementation",
          "type": "address"
        }
      ],
      "name": "upgradeTo",
      "outputs": [],
      "stateMutability": "nonpayable",
      "type": "function"
    },
    {
      "inputs": [
        {
          "internalType": "address",
          "name": "newImplementation",
          "type": "address"
        },
        {
          "internalType": "bytes",
          "name": "data",
          "type": "bytes"
        }
      ],
      "name": "upgradeToAndCall",
      "outputs": [],
      "stateMutability": "payable",
      "type": "function"
    },
    {
      "inputs": [],
      "name": "usdcContract",
      "outputs": [
        {
          "internalType": "contract IERC20Upgradeable",
          "name": "",
          "type": "address"
        }
      ],
      "stateMutability": "view",
      "type": "function"
    },
    {
      "inputs": [],
      "name": "vaultContract",
      "outputs": [
        {
          "internalType": "address",
          "name": "",
          "type": "address"
        }
      ],
      "stateMutability": "view",
      "type": "function"
    }
  ],
  "bytecode": "0x60a06040523060805234801561001457600080fd5b50608051613bc161004c600039600081816111d201528181611212015281816117f90152818161183901526118b10152613bc16000f3fe6080604052600436106102275760003560e01c80636579e09a11610124578063b92a92bc116100a6578063b92a92bc146106e2578063c0c53b8b14610702578063d08c3b3b14610722578063d20b22b214610751578063d3ffe67a14610771578063d547741f14610786578063de9a091b146107a6578063e328400c146107c6578063e768896c146107e8578063f665d10b14610815578063f693ee721461084357600080fd5b80636579e09a1461057357806375b238fc146105935780637b4ba822146105b5578063827c7889146105d557806391d14854146105f5578063970e982a14610615578063a217fddf14610635578063a901d15c1461064a578063ac4afa381461066a578063b1684e59146106a2578063b359c3b0146106c257600080fd5b80632f2ff15d116101ad5780632f2ff15d1461041d57806336568abe1461043d5780633659cfe61461045d578063389ff54d1461047d57806339b4b0d61461049d5780633ecd1211146104be57806340fcd563146104de57806347d666a31461050b5780634846f8b61461052b5780634f1ef2861461054b57806352d1902d1461055e57600080fd5b80630121c33e1461022c57806301ffc9a71461024e578063068bcd8d146102835780631323e88b146102b057806313eeb3c7146102e85780632274346b1461030857806322af00fa14610328578063238ac9331461037e578063248a9ca31461039f5780632b263ab7146103dd5780632ce4acff146103fd575b600080fd5b34801561023857600080fd5b5061024c610247366004612e83565b610863565b005b34801561025a57600080fd5b5061026e610269366004612ea5565b61096d565b60405190151581526020015b60405180910390f35b34801561028f57600080fd5b506102a361029e366004612ecf565b6109a4565b60405161027a9190612fa5565b3480156102bc57600080fd5b5060fb546102d0906001600160a01b031681565b6040516001600160a01b03909116815260200161027a565b3480156102f457600080fd5b5061024c6103033660046131fb565b610b6a565b34801561031457600080fd5b5060fc546102d0906001600160a01b031681565b34801561033457600080fd5b50610348610343366004612ecf565b610e66565b6040805196875260208701959095529385019290925260608401526001600160a01b0316608083015260a082015260c00161027a565b34801561038a57600080fd5b50610100546102d0906001600160a01b031681565b3480156103ab57600080fd5b506103cf6103ba366004612ecf565b600090815260c9602052604090206001015490565b60405190815260200161027a565b3480156103e957600080fd5b5061026e6103f8366004613301565b610eb8565b34801561040957600080fd5b5061024c610418366004612ecf565b610f31565b34801561042957600080fd5b5061024c610438366004613334565b61111f565b34801561044957600080fd5b5061024c610458366004613334565b611149565b34801561046957600080fd5b5061024c610478366004613360565b6111c7565b34801561048957600080fd5b5061024c610498366004612e83565b611290565b3480156104a957600080fd5b50610101546102d0906001600160a01b031681565b3480156104ca57600080fd5b5061024c6104d9366004612ecf565b6113a9565b3480156104ea57600080fd5b506104fe6104f9366004612ecf565b611597565b60405161027a91906133c6565b34801561051757600080fd5b5061024c610526366004613360565b6116d8565b34801561053757600080fd5b5061024c610546366004613360565b611766565b61024c610559366004613428565b6117ee565b34801561056a57600080fd5b506103cf6118a4565b34801561057f57600080fd5b506103cf61058e366004612e83565b611952565b34801561059f57600080fd5b506103cf600080516020613b6c83398151915281565b3480156105c157600080fd5b5061024c6105d0366004613489565b611984565b3480156105e157600080fd5b5061024c6105f0366004612ecf565b611ad2565b34801561060157600080fd5b5061026e610610366004613334565b611c15565b34801561062157600080fd5b5061026e610630366004613301565b611c40565b34801561064157600080fd5b506103cf600081565b34801561065657600080fd5b5061024c610665366004612ecf565b611ca7565b34801561067657600080fd5b5061068a610685366004612ecf565b611d7d565b60405161027a9c9b9a999897969594939291906134c5565b3480156106ae57600080fd5b5061026e6106bd366004613301565b611e87565b3480156106ce57600080fd5b5061024c6106dd366004613543565b611eb5565b3480156106ee57600080fd5b5061024c6106fd36600461356f565b611f69565b34801561070e57600080fd5b5061024c61071d36600461360b565b61205a565b34801561072e57600080fd5b5061074261073d366004612e83565b6121d6565b60405161027a9392919061364e565b34801561075d57600080fd5b5061026e61076c36600461367e565b6122a8565b34801561077d57600080fd5b5060fd546103cf565b34801561079257600080fd5b5061024c6107a1366004613334565b612358565b3480156107b257600080fd5b5061024c6107c1366004613360565b61237d565b3480156107d257600080fd5b506103cf600080516020613b0583398151915281565b3480156107f457600080fd5b50610808610803366004612e83565b612406565b60405161027a91906136c0565b34801561082157600080fd5b506103cf610830366004612ecf565b6101036020526000908152604090205481565b34801561084f57600080fd5b5061024c61085e366004613360565b61251c565b600080516020613b0583398151915261087b816125a9565b8260fd5481106108a65760405162461bcd60e51b815260040161089d906136d3565b60405180910390fd5b600060fd85815481106108bb576108bb613705565b60009182526020909120600d9091020190506001600882015460ff1660038111156108e8576108e8612f40565b146109055760405162461bcd60e51b815260040161089d9061371b565b60088101805460ff191660021790556009810180546001810182556000828152602090200185905560405186917ffc5202f8bdf8ee68ee02ef3a56b265a2d6f9c5102b232ab3b5d1636adf0057de9161095e9190613761565b60405180910390a25050505050565b60006001600160e01b03198216637965db0b60e01b148061099e57506301ffc9a760e01b6001600160e01b03198316145b92915050565b6109ac612cfd565b60fd82815481106109bf576109bf613705565b90600052602060002090600d0201604051806101a001604052908160008201548152602001600182015481526020016002820180546109fd906137a8565b80601f0160208091040260200160405190810160405280929190818152602001828054610a29906137a8565b8015610a765780601f10610a4b57610100808354040283529160200191610a76565b820191906000526020600020905b815481529060010190602001808311610a5957829003601f168201915b50505091835250506003828101546020830152600483015460408301526005830154606083015260068301546080830152600783015460a0830152600883015460c09092019160ff1690811115610acf57610acf612f40565b6003811115610ae057610ae0612f40565b815260200160098201805480602002602001604051908101604052809291908181526020018280548015610b3357602002820191906000526020600020905b815481526020019060010190808311610b1f575b5050509183525050600a8201546020820152600b8201546040820152600c909101546001600160a01b031660609091015292915050565b600080516020613b05833981519152610b82816125a9565b60fd5482518814610bea5760405162461bcd60e51b815260206004820152602c60248201527f42657474696e673a204d69736d61746368696e67207465616d7320616e64206e60448201526b756d6265724f665465616d7360a01b606482015260840161089d565b606060fd604051806101a001604052808481526020018b81526020018a8152602001600081526020016000815260200160008152602001600081526020016000815260200160006003811115610c4257610c42612f40565b8152602001838152602001898152602001888a610c5f91906137f9565b81526001600160a01b0388166020918201528254600181810185556000948552938290208351600d90920201908155828201519381019390935560408201518051929392610cb39260028501920190612d7f565b50606082015181600301556080820151816004015560a0820151816005015560c0820151816006015560e082015181600701556101008201518160080160006101000a81548160ff02191690836003811115610d1157610d11612f40565b02179055506101208201518051610d32916009840191602090910190612e03565b50610140820151600a820155610160820151600b82015561018090910151600c90910180546001600160a01b0319166001600160a01b0390921691909117905560005b89811015610e1f57600083815260ff602052604090208551869083908110610d9f57610d9f613705565b602090810291909101810151825460018181018555600094855293839020825160039092020190815581830151805192949193610de29392850192910190612d7f565b50604082015160028201805460ff191660018381811115610e0557610e05612f40565b021790555050508080610e1790613811565b915050610d75565b50604080518a81526020810189905283917f6a0c7fbf44f6331867816b75328f586816c7ff60b5f3b71d7ccd1da786a93898910160405180910390a2505050505050505050565b60fe8181548110610e7657600080fd5b6000918252602090912060069091020180546001820154600283015460038401546004850154600590950154939550919390926001600160a01b039091169086565b610101546000906001600160a01b03163314610ee65760405162461bcd60e51b815260040161089d9061382c565b600060fd8481548110610efb57610efb613705565b90600052602060002090600d0201905082816007016000828254610f1f91906137f9565b909155506001925050505b9392505050565b600080516020613b05833981519152610f49816125a9565b8160fd548110610f6b5760405162461bcd60e51b815260040161089d906136d3565b600060fd8481548110610f8057610f80613705565b60009182526020909120600d9091020190506002600882015460ff166003811115610fad57610fad612f40565b14610fca5760405162461bcd60e51b815260040161089d90613896565b4281600b015462278d00610fde91906137f9565b10156110455760405162461bcd60e51b815260206004820152603060248201527f42657474696e673a2043616e6e6f74207472616e73666572206265666f72652060448201526f3330206461797320646561646c696e6560801b606482015260840161089d565b60008160070154826006015461105b91906138dc565b60fb546101015460fc546040516323b872dd60e01b81529394506001600160a01b03928316936323b872dd9361109a93811692169086906004016138f3565b602060405180830381600087803b1580156110b457600080fd5b505af11580156110c8573d6000803e3d6000fd5b505050506040513d601f19601f820116820180604052508101906110ec9190613917565b50847f59dc0958e93eacc6a9afdb86deaf872e2d39e792aba237f41dd53e8b71ca330d8260405161095e91815260200190565b600082815260c9602052604090206001015461113a816125a9565b61114483836125b3565b505050565b6001600160a01b03811633146111b95760405162461bcd60e51b815260206004820152602f60248201527f416363657373436f6e74726f6c3a2063616e206f6e6c792072656e6f756e636560448201526e103937b632b9903337b91039b2b63360891b606482015260840161089d565b6111c38282612639565b5050565b306001600160a01b037f00000000000000000000000000000000000000000000000000000000000000001614156112105760405162461bcd60e51b815260040161089d90613939565b7f00000000000000000000000000000000000000000000000000000000000000006001600160a01b03166112426126a0565b6001600160a01b0316146112685760405162461bcd60e51b815260040161089d90613985565b611271816126bc565b6040805160008082526020820190925261128d918391906126d4565b50565b600080516020613b058339815191526112a8816125a9565b8260fd5481106112ca5760405162461bcd60e51b815260040161089d906136d3565b600060fd85815481106112df576112df613705565b60009182526020909120600d9091020190506001600882015460ff16600381111561130c5761130c612f40565b146113295760405162461bcd60e51b815260040161089d9061371b565b600085815260ff6020526040812080548690811061134957611349613705565b60009182526020918290206002600390920201908101805460ff1916600117905560405187815290925087917f6be7bebff0960c1283dec4f769f1622a5873d4c147ff04bdfee0c7ad9ce64cd091015b60405180910390a2505050505050565b600080516020613b058339815191526113c1816125a9565b8160fd5481106113e35760405162461bcd60e51b815260040161089d906136d3565b600060fd84815481106113f8576113f8613705565b60009182526020909120600d9091020190506002600882015460ff16600381111561142557611425612f40565b146114425760405162461bcd60e51b815260040161089d90613896565b4281600b01546276a70061145691906137f9565b10156114bd5760405162461bcd60e51b815260206004820152603060248201527f42657474696e673a2043616e6e6f74207472616e73666572206265666f72652060448201526f3930206461797320646561646c696e6560801b606482015260840161089d565b6000816005015482600401546114d391906138dc565b60fb546101015460fc546040516323b872dd60e01b81529394506001600160a01b03928316936323b872dd9361151293811692169086906004016138f3565b602060405180830381600087803b15801561152c57600080fd5b505af1158015611540573d6000803e3d6000fd5b505050506040513d601f19601f820116820180604052508101906115649190613917565b50847f3409735dcbc5d8c657b5481653ba4c43a3a0a31223224eb0a694d98db67534b38260405161095e91815260200190565b606060ff6000838152602001908152602001600020805480602002602001604051908101604052809291908181526020016000905b828210156116cd578382906000526020600020906003020160405180606001604052908160008201548152602001600182018054611609906137a8565b80601f0160208091040260200160405190810160405280929190818152602001828054611635906137a8565b80156116825780601f1061165757610100808354040283529160200191611682565b820191906000526020600020905b81548152906001019060200180831161166557829003601f168201915b5050509183525050600282015460209091019060ff1660018111156116a9576116a9612f40565b60018111156116ba576116ba612f40565b81525050815260200190600101906115cc565b505050509050919050565b600080516020613b058339815191526116f0816125a9565b6001600160a01b0382166117435760405162461bcd60e51b815260206004820152601a6024820152795a65726f207661756c74436f6e7472616374206164647265737360301b604482015260640161089d565b5060fc80546001600160a01b0319166001600160a01b0392909216919091179055565b600080516020613b0583398151915261177e816125a9565b6001600160a01b0382166117ca5760405162461bcd60e51b81526020600482015260136024820152725a65726f205369676e6572206164647265737360681b604482015260640161089d565b5061010080546001600160a01b0319166001600160a01b0392909216919091179055565b306001600160a01b037f00000000000000000000000000000000000000000000000000000000000000001614156118375760405162461bcd60e51b815260040161089d90613939565b7f00000000000000000000000000000000000000000000000000000000000000006001600160a01b03166118696126a0565b6001600160a01b03161461188f5760405162461bcd60e51b815260040161089d90613985565b611898826126bc565b6111c3828260016126d4565b6000306001600160a01b037f0000000000000000000000000000000000000000000000000000000000000000161461193f5760405162461bcd60e51b815260206004820152603860248201527f555550535570677261646561626c653a206d757374206e6f742062652063616c6044820152771b1959081d1a1c9bdd59da0819195b1959d85d1958d85b1b60421b606482015260840161089d565b50600080516020613b2583398151915290565b610102602052816000526040600020818154811061196f57600080fd5b90600052602060002001600091509150505481565b600080516020613b0583398151915261199c816125a9565b8260fd5481106119be5760405162461bcd60e51b815260040161089d906136d3565b600060fd85815481106119d3576119d3613705565b600091825260208220600d909102019150600882015460ff1660038111156119fd576119fd612f40565b14611a1a5760405162461bcd60e51b815260040161089d906139d1565b6001808201805491906000611a2f83856137f9565b9091555050600086815260ff602090815260408220805460018181018355918452928290208851600390940201928355878201518051899493611a76938501920190612d7f565b50604082015160028201805460ff191660018381811115611a9957611a99612f40565b02179055505050857fbf4e0902754249bb261d41b4db4a3a2c30976988a31c2881d7d7ded86813b8498260405161139991815260200190565b600080516020613b05833981519152611aea816125a9565b8160fd548110611b0c5760405162461bcd60e51b815260040161089d906136d3565b600060fd8481548110611b2157611b21613705565b600091825260208220600d909102019150600882015460ff166003811115611b4b57611b4b612f40565b1480611b6f57506001600882015460ff166003811115611b6d57611b6d612f40565b145b611bd55760405162461bcd60e51b815260206004820152603160248201527f42657474696e673a20506f6f6c207374617475732073686f756c642062652043604482015270726561746564206f722052756e6e696e6760781b606482015260840161089d565b60088101805460ff1916600317905560405184907f03febafce5358e5ccb78f3e18dcc83d21c96a64775251b7d3537cecd8464333090600090a250505050565b600091825260c9602090815260408084206001600160a01b0393909316845291905290205460ff1690565b610101546000906001600160a01b03163314611c6e5760405162461bcd60e51b815260040161089d9061382c565b600060fd8481548110611c8357611c83613705565b90600052602060002090600d0201905082816005016000828254610f1f91906137f9565b600080516020613b05833981519152611cbf816125a9565b8160fd548110611ce15760405162461bcd60e51b815260040161089d906136d3565b600060fd8481548110611cf657611cf6613705565b600091825260208220600d909102019150600882015460ff166003811115611d2057611d20612f40565b14611d3d5760405162461bcd60e51b815260040161089d906139d1565b60088101805460ff1916600117905560405184907f510ad7fdc6893c3992445eb80eeade3af54768c0d8dc2cc8fc57b1c9afa1491d90600090a250505050565b60fd8181548110611d8d57600080fd5b90600052602060002090600d0201600091509050806000015490806001015490806002018054611dbc906137a8565b80601f0160208091040260200160405190810160405280929190818152602001828054611de8906137a8565b8015611e355780601f10611e0a57610100808354040283529160200191611e35565b820191906000526020600020905b815481529060010190602001808311611e1857829003601f168201915b505050600384015460048501546005860154600687015460078801546008890154600a8a0154600b8b0154600c909b0154999a96999598509396509194909360ff90921692916001600160a01b03168c565b610101546000906001600160a01b03163314610f2a5760405162461bcd60e51b815260040161089d9061382c565b600080516020613b05833981519152611ecd816125a9565b8360fd548110611eef5760405162461bcd60e51b815260040161089d906136d3565b600060fd8681548110611f0457611f04613705565b600091825260208220600d909102019150600882015460ff166003811115611f2e57611f2e612f40565b14611f4b5760405162461bcd60e51b815260040161089d906139d1565b600a8101859055611f5c84866137f9565b600b909101555050505050565b600080516020613b05833981519152611f81816125a9565b8260fd548110611fa35760405162461bcd60e51b815260040161089d906136d3565b600060fd8581548110611fb857611fb8613705565b60009182526020909120600d9091020190506001600882015460ff166003811115611fe557611fe5612f40565b146120025760405162461bcd60e51b815260040161089d9061371b565b60088101805460ff1916600217905583516120269060098301906020870190612e03565b50847ffc5202f8bdf8ee68ee02ef3a56b265a2d6f9c5102b232ab3b5d1636adf0057de8260090160405161095e9190613761565b600054610100900460ff161580801561207a5750600054600160ff909116105b8061209b57506120893061284e565b15801561209b575060005460ff166001145b6120fe5760405162461bcd60e51b815260206004820152602e60248201527f496e697469616c697a61626c653a20636f6e747261637420697320616c72656160448201526d191e481a5b9a5d1a585b1a5e995960921b606482015260840161089d565b6000805460ff191660011790558015612121576000805461ff0019166101001790555b61212961285d565b60fb80546001600160a01b038087166001600160a01b03199283161790925560fc805486841690831617905561010080549285169290911691909117905561217f600080516020613b6c833981519152336128ca565b61218a6000336128ca565b80156121d0576000805461ff0019169055604051600181527f7f26b83ff96e1f2b6a682f133852f6798a09c465da95921460cefb38474024989060200160405180910390a15b50505050565b60ff60205281600052604060002081815481106121f257600080fd5b90600052602060002090600302016000915091505080600001549080600101805461221c906137a8565b80601f0160208091040260200160405190810160405280929190818152602001828054612248906137a8565b80156122955780601f1061226a57610100808354040283529160200191612295565b820191906000526020600020905b81548152906001019060200180831161227857829003601f168201915b5050506002909301549192505060ff1683565b610101546000906001600160a01b031633146122d65760405162461bcd60e51b815260040161089d9061382c565b600060fd86815481106122eb576122eb613705565b90600052602060002090600d020190508381600401600082825461230f91906137f9565b92505081905550600181600301600082825461232b91906137f9565b925050819055508281600601600082825461234691906137f9565b90915550600198975050505050505050565b600082815260c96020526040902060010154612373816125a9565b6111448383612639565b600080516020613b05833981519152612395816125a9565b6001600160a01b0382166123e25760405162461bcd60e51b81526020600482015260146024820152735a65726f2062657474696e67206164647265737360601b604482015260640161089d565b5061010180546001600160a01b0319166001600160a01b0392909216919091179055565b61240e612e3d565b600083815260ff6020526040902080548390811061242e5761242e613705565b906000526020600020906003020160405180606001604052908160008201548152602001600182018054612461906137a8565b80601f016020809104026020016040519081016040528092919081815260200182805461248d906137a8565b80156124da5780601f106124af576101008083540402835291602001916124da565b820191906000526020600020905b8154815290600101906020018083116124bd57829003601f168201915b5050509183525050600282015460209091019060ff16600181111561250157612501612f40565b600181111561251257612512612f40565b9052509392505050565b600080516020613b05833981519152612534816125a9565b6001600160a01b0382166125865760405162461bcd60e51b81526020600482015260196024820152785a65726f2075736463436f6e7472616374206164647265737360381b604482015260640161089d565b5060fb80546001600160a01b0319166001600160a01b0392909216919091179055565b61128d81336128d4565b6125bd8282611c15565b6111c357600082815260c9602090815260408083206001600160a01b03851684529091529020805460ff191660011790556125f53390565b6001600160a01b0316816001600160a01b0316837f2f8788117e7eff1d82e926ec794901d17c78024a50270940304540a733656f0d60405160405180910390a45050565b6126438282611c15565b156111c357600082815260c9602090815260408083206001600160a01b0385168085529252808320805460ff1916905551339285917ff6391f5c32d9c69d2a47ea670b442974b53935d1edc7fd64eb21e047a839171b9190a45050565b600080516020613b25833981519152546001600160a01b031690565b600080516020613b6c8339815191526111c3816125a9565b7f4910fdfa16fed3260ed0e7147f7cc6da11a60208b5b9406d12a635614ffd91435460ff16156127075761114483612938565b826001600160a01b03166352d1902d6040518163ffffffff1660e01b815260040160206040518083038186803b15801561274057600080fd5b505afa925050508015612770575060408051601f3d908101601f1916820190925261276d91810190613a17565b60015b6127d35760405162461bcd60e51b815260206004820152602e60248201527f45524331393637557067726164653a206e657720696d706c656d656e7461746960448201526d6f6e206973206e6f74205555505360901b606482015260840161089d565b600080516020613b2583398151915281146128425760405162461bcd60e51b815260206004820152602960248201527f45524331393637557067726164653a20756e737570706f727465642070726f786044820152681a58589b195555525160ba1b606482015260840161089d565b506111448383836129d2565b6001600160a01b03163b151590565b600054610100900460ff166128c85760405162461bcd60e51b815260206004820152602b60248201527f496e697469616c697a61626c653a20636f6e7472616374206973206e6f74206960448201526a6e697469616c697a696e6760a81b606482015260840161089d565b565b6111c382826125b3565b6128de8282611c15565b6111c3576128f6816001600160a01b031660146129f7565b6129018360206129f7565b604051602001612912929190613a30565b60408051601f198184030181529082905262461bcd60e51b825261089d91600401613a9f565b6129418161284e565b6129a35760405162461bcd60e51b815260206004820152602d60248201527f455243313936373a206e657720696d706c656d656e746174696f6e206973206e60448201526c1bdd08184818dbdb9d1c9858dd609a1b606482015260840161089d565b600080516020613b2583398151915280546001600160a01b0319166001600160a01b0392909216919091179055565b6129db83612b92565b6000825111806129e85750805b15611144576121d08383612bd2565b60606000612a06836002613ab2565b612a119060026137f9565b6001600160401b03811115612a2857612a28613079565b6040519080825280601f01601f191660200182016040528015612a52576020820181803683370190505b509050600360fc1b81600081518110612a6d57612a6d613705565b60200101906001600160f81b031916908160001a905350600f60fb1b81600181518110612a9c57612a9c613705565b60200101906001600160f81b031916908160001a9053506000612ac0846002613ab2565b612acb9060016137f9565b90505b6001811115612b43576f181899199a1a9b1b9c1cb0b131b232b360811b85600f1660108110612aff57612aff613705565b1a60f81b828281518110612b1557612b15613705565b60200101906001600160f81b031916908160001a90535060049490941c93612b3c81613ad1565b9050612ace565b508315610f2a5760405162461bcd60e51b815260206004820181905260248201527f537472696e67733a20686578206c656e67746820696e73756666696369656e74604482015260640161089d565b612b9b81612938565b6040516001600160a01b038216907fbc7cd75a20ee27fd9adebab32041f755214dbc6bffa90cc0225b39da2e5c2d3b90600090a250565b6060612bdd8361284e565b612c385760405162461bcd60e51b815260206004820152602660248201527f416464726573733a2064656c65676174652063616c6c20746f206e6f6e2d636f6044820152651b9d1c9858dd60d21b606482015260840161089d565b600080846001600160a01b031684604051612c539190613ae8565b600060405180830381855af49150503d8060008114612c8e576040519150601f19603f3d011682016040523d82523d6000602084013e612c93565b606091505b5091509150612cbb8282604051806060016040528060278152602001613b4560279139612cc4565b95945050505050565b60608315612cd3575081610f2a565b825115612ce35782518084602001fd5b8160405162461bcd60e51b815260040161089d9190613a9f565b604051806101a00160405280600081526020016000815260200160608152602001600081526020016000815260200160008152602001600081526020016000815260200160006003811115612d5457612d54612f40565b815260200160608152602001600081526020016000815260200160006001600160a01b031681525090565b828054612d8b906137a8565b90600052602060002090601f016020900481019282612dad5760008555612df3565b82601f10612dc657805160ff1916838001178555612df3565b82800160010185558215612df3579182015b82811115612df3578251825591602001919060010190612dd8565b50612dff929150612e6e565b5090565b828054828255906000526020600020908101928215612df35791602002820182811115612df3578251825591602001919060010190612dd8565b6040518060600160405280600081526020016060815260200160006001811115612e6957612e69612f40565b905290565b5b80821115612dff5760008155600101612e6f565b60008060408385031215612e9657600080fd5b50508035926020909101359150565b600060208284031215612eb757600080fd5b81356001600160e01b031981168114610f2a57600080fd5b600060208284031215612ee157600080fd5b5035919050565b60005b83811015612f03578181015183820152602001612eeb565b838111156121d05750506000910152565b60008151808452612f2c816020860160208601612ee8565b601f01601f19169290920160200192915050565b634e487b7160e01b600052602160045260246000fd5b60048110612f6657612f66612f40565b9052565b600081518084526020808501945080840160005b83811015612f9a57815187529582019590820190600101612f7e565b509495945050505050565b602081528151602082015260208201516040820152600060408301516101a0806060850152612fd86101c0850183612f14565b915060608501516080850152608085015160a085015260a085015160c085015260c085015160e085015260e085015161010081818701528087015191505061012061302581870183612f56565b80870151915050610140601f1986850301818701526130448483612f6a565b908701516101608781019190915287015161018080880191909152909601516001600160a01b03169190940152509192915050565b634e487b7160e01b600052604160045260246000fd5b604051601f8201601f191681016001600160401b03811182821017156130b7576130b7613079565b604052919050565b60006001600160401b038311156130d8576130d8613079565b6130eb601f8401601f191660200161308f565b90508281528383830111156130ff57600080fd5b828260208301376000602084830101529392505050565b600082601f83011261312757600080fd5b610f2a838335602085016130bf565b80356001600160a01b038116811461314d57600080fd5b919050565b60006001600160401b0382111561316b5761316b613079565b5060051b60200190565b60006060828403121561318757600080fd5b604051606081016001600160401b0382821081831117156131aa576131aa613079565b816040528293508435835260208501359150808211156131c957600080fd5b506131d685828601613116565b6020830152506040830135600281106131ee57600080fd5b6040919091015292915050565b60008060008060008060c0878903121561321457600080fd5b863595506020808801356001600160401b038082111561323357600080fd5b61323f8b838c01613116565b975060408a0135965060608a0135955061325b60808b01613136565b945060a08a013591508082111561327157600080fd5b818a0191508a601f83011261328557600080fd5b813561329861329382613152565b61308f565b81815260059190911b8301840190848101908d8311156132b757600080fd5b8585015b838110156132ed5784813511156132d157600080fd5b6132e08f888335890101613175565b83529186019186016132bb565b508096505050505050509295509295509295565b60008060006060848603121561331657600080fd5b61331f84613136565b95602085013595506040909401359392505050565b6000806040838503121561334757600080fd5b8235915061335760208401613136565b90509250929050565b60006020828403121561337257600080fd5b610f2a82613136565b60028110612f6657612f66612f40565b8051825260006020820151606060208501526133aa6060850182612f14565b905060408301516133be604086018261337b565b509392505050565b6000602080830181845280855180835260408601915060408160051b870101925083870160005b8281101561341b57603f1988860301845261340985835161338b565b945092850192908501906001016133ed565b5092979650505050505050565b6000806040838503121561343b57600080fd5b61344483613136565b915060208301356001600160401b0381111561345f57600080fd5b8301601f8101851361347057600080fd5b61347f858235602084016130bf565b9150509250929050565b6000806040838503121561349c57600080fd5b8235915060208301356001600160401b038111156134b957600080fd5b61347f85828601613175565b60006101808e83528d60208401528060408401526134e58184018e612f14565b9150508a60608301528960808301528860a08301528760c08301528660e0830152613514610100830187612f56565b6101208201949094526101408101929092526001600160a01b0316610160909101529998505050505050505050565b60008060006060848603121561355857600080fd5b505081359360208301359350604090920135919050565b6000806040838503121561358257600080fd5b823591506020808401356001600160401b038111156135a057600080fd5b8401601f810186136135b157600080fd5b80356135bf61329382613152565b81815260059190911b820183019083810190888311156135de57600080fd5b928401925b828410156135fc578335825292840192908401906135e3565b80955050505050509250929050565b60008060006060848603121561362057600080fd5b61362984613136565b925061363760208501613136565b915061364560408501613136565b90509250925092565b8381526060602082015260006136676060830185612f14565b9050613676604083018461337b565b949350505050565b600080600080600060a0868803121561369657600080fd5b61369f86613136565b97602087013597506040870135966060810135965060800135945092505050565b602081526000610f2a602083018461338b565b60208082526018908201527710995d1d1a5b99ce881259081a5cc81b9bdd081d985b1a5960421b604082015260600190565b634e487b7160e01b600052603260045260246000fd5b60208082526026908201527f42657474696e673a20506f6f6c207374617475732073686f756c642062652052604082015265756e6e696e6760d01b606082015260800190565b6020808252825482820181905260008481528281209092916040850190845b8181101561379c57835483526001938401939285019201613780565b50909695505050505050565b600181811c908216806137bc57607f821691505b602082108114156137dd57634e487b7160e01b600052602260045260246000fd5b50919050565b634e487b7160e01b600052601160045260246000fd5b6000821982111561380c5761380c6137e3565b500190565b6000600019821415613825576138256137e3565b5060010190565b60208082526044908201527f42657474696e6741646d696e3a204f6e6c792062657474696e6720636f6e747260408201527f61637420697320617574686f72697a656420666f722074686973206f706572616060820152633a34b7b760e11b608082015260a00190565b60208082526026908201527f42657474696e673a20506f6f6c207374617475732073686f756c6420626520446040820152651958da59195960d21b606082015260800190565b6000828210156138ee576138ee6137e3565b500390565b6001600160a01b039384168152919092166020820152604081019190915260600190565b60006020828403121561392957600080fd5b81518015158114610f2a57600080fd5b6020808252602c908201527f46756e6374696f6e206d7573742062652063616c6c6564207468726f7567682060408201526b19195b1959d85d1958d85b1b60a21b606082015260800190565b6020808252602c908201527f46756e6374696f6e206d7573742062652063616c6c6564207468726f7567682060408201526b6163746976652070726f787960a01b606082015260800190565b60208082526026908201527f42657474696e673a20506f6f6c207374617475732073686f756c6420626520436040820152651c99585d195960d21b606082015260800190565b600060208284031215613a2957600080fd5b5051919050565b76020b1b1b2b9b9a1b7b73a3937b61d1030b1b1b7bab73a1604d1b815260008351613a62816017850160208801612ee8565b7001034b99036b4b9b9b4b733903937b6329607d1b6017918401918201528351613a93816028840160208801612ee8565b01602801949350505050565b602081526000610f2a6020830184612f14565b6000816000190483118215151615613acc57613acc6137e3565b500290565b600081613ae057613ae06137e3565b506000190190565b60008251613afa818460208701612ee8565b919091019291505056fea5a0b70b385ff7611cd3840916bd08b10829e5bf9e6637cf79dd9a427fc0e2ab360894a13ba1a3210667c828492db98dca3e2076cc3735a920a3ca505d382bbc416464726573733a206c6f772d6c6576656c2064656c65676174652063616c6c206661696c6564a49807205ce4d355092ef5a8a18f56e8913cf4a201fbe287825b095693c21775a264697066735822122048173c2d7407190b7b2e9d49c0ef23a9391bba7d9e209187f17c6e006db9cf6564736f6c63430008090033",
  "linkReferences": {},
  "deployedLinkReferences": {}
}