{
  "_format": "hh-sol-artifact-1",
  "contractName": "ERC1155PresetMinterPauser",
  "sourceName": "contracts/mocks/ERC1155PresetMinterPauser.sol",
  "abi": [
    {
      "inputs": [
        {
          "internalType": "string",
          "name": "uri",
          "type": "string"
        }
      ],
      "stateMutability": "nonpayable",
      "type": "constructor"
    },
    {
      "anonymous": false,
      "inputs": [
        {
          "indexed": true,
          "internalType": "address",
          "name": "account",
          "type": "address"
        },
        {
          "indexed": true,
          "internalType": "address",
          "name": "operator",
          "type": "address"
        },
        {
          "indexed": false,
          "internalType": "bool",
          "name": "approved",
          "type": "bool"
        }
      ],
      "name": "ApprovalForAll",
      "type": "event"
    },
    {
      "anonymous": false,
      "inputs": [
        {
          "indexed": false,
          "internalType": "address",
          "name": "account",
          "type": "address"
        }
      ],
      "name": "Paused",
      "type": "event"
    },
    {
      "anonymous": false,
      "inputs": [
        {
          "indexed": true,
          "internalType": "bytes32",
          "name": "role",
          "type": "bytes32"
        },
        {
          "indexed": true,
          "internalType": "bytes32",
          "name": "previousAdminRole",
          "type": "bytes32"
        },
        {
          "indexed": true,
          "internalType": "bytes32",
          "name": "newAdminRole",
          "type": "bytes32"
        }
      ],
      "name": "RoleAdminChanged",
      "type": "event"
    },
    {
      "anonymous": false,
      "inputs": [
        {
          "indexed": true,
          "internalType": "bytes32",
          "name": "role",
          "type": "bytes32"
        },
        {
          "indexed": true,
          "internalType": "address",
          "name": "account",
          "type": "address"
        },
        {
          "indexed": true,
          "internalType": "address",
          "name": "sender",
          "type": "address"
        }
      ],
      "name": "RoleGranted",
      "type": "event"
    },
    {
      "anonymous": false,
      "inputs": [
        {
          "indexed": true,
          "internalType": "bytes32",
          "name": "role",
          "type": "bytes32"
        },
        {
          "indexed": true,
          "internalType": "address",
          "name": "account",
          "type": "address"
        },
        {
          "indexed": true,
          "internalType": "address",
          "name": "sender",
          "type": "address"
        }
      ],
      "name": "RoleRevoked",
      "type": "event"
    },
    {
      "anonymous": false,
      "inputs": [
        {
          "indexed": true,
          "internalType": "address",
          "name": "operator",
          "type": "address"
        },
        {
          "indexed": true,
          "internalType": "address",
          "name": "from",
          "type": "address"
        },
        {
          "indexed": true,
          "internalType": "address",
          "name": "to",
          "type": "address"
        },
        {
          "indexed": false,
          "internalType": "uint256[]",
          "name": "ids",
          "type": "uint256[]"
        },
        {
          "indexed": false,
          "internalType": "uint256[]",
          "name": "values",
          "type": "uint256[]"
        }
      ],
      "name": "TransferBatch",
      "type": "event"
    },
    {
      "anonymous": false,
      "inputs": [
        {
          "indexed": true,
          "internalType": "address",
          "name": "operator",
          "type": "address"
        },
        {
          "indexed": true,
          "internalType": "address",
          "name": "from",
          "type": "address"
        },
        {
          "indexed": true,
          "internalType": "address",
          "name": "to",
          "type": "address"
        },
        {
          "indexed": false,
          "internalType": "uint256",
          "name": "id",
          "type": "uint256"
        },
        {
          "indexed": false,
          "internalType": "uint256",
          "name": "value",
          "type": "uint256"
        }
      ],
      "name": "TransferSingle",
      "type": "event"
    },
    {
      "anonymous": false,
      "inputs": [
        {
          "indexed": false,
          "internalType": "string",
          "name": "value",
          "type": "string"
        },
        {
          "indexed": true,
          "internalType": "uint256",
          "name": "id",
          "type": "uint256"
        }
      ],
      "name": "URI",
      "type": "event"
    },
    {
      "anonymous": false,
      "inputs": [
        {
          "indexed": false,
          "internalType": "address",
          "name": "account",
          "type": "address"
        }
      ],
      "name": "Unpaused",
      "type": "event"
    },
    {
      "inputs": [],
      "name": "DEFAULT_ADMIN_ROLE",
      "outputs": [
        {
          "internalType": "bytes32",
          "name": "",
          "type": "bytes32"
        }
      ],
      "stateMutability": "view",
      "type": "function"
    },
    {
      "inputs": [],
      "name": "MINTER_ROLE",
      "outputs": [
        {
          "internalType": "bytes32",
          "name": "",
          "type": "bytes32"
        }
      ],
      "stateMutability": "view",
      "type": "function"
    },
    {
      "inputs": [],
      "name": "PAUSER_ROLE",
      "outputs": [
        {
          "internalType": "bytes32",
          "name": "",
          "type": "bytes32"
        }
      ],
      "stateMutability": "view",
      "type": "function"
    },
    {
      "inputs": [
        {
          "internalType": "address",
          "name": "account",
          "type": "address"
        },
        {
          "internalType": "uint256",
          "name": "id",
          "type": "uint256"
        }
      ],
      "name": "balanceOf",
      "outputs": [
        {
          "internalType": "uint256",
          "name": "",
          "type": "uint256"
        }
      ],
      "stateMutability": "view",
      "type": "function"
    },
    {
      "inputs": [
        {
          "internalType": "address[]",
          "name": "accounts",
          "type": "address[]"
        },
        {
          "internalType": "uint256[]",
          "name": "ids",
          "type": "uint256[]"
        }
      ],
      "name": "balanceOfBatch",
      "outputs": [
        {
          "internalType": "uint256[]",
          "name": "",
          "type": "uint256[]"
        }
      ],
      "stateMutability": "view",
      "type": "function"
    },
    {
      "inputs": [
        {
          "internalType": "address",
          "name": "account",
          "type": "address"
        },
        {
          "internalType": "uint256",
          "name": "id",
          "type": "uint256"
        },
        {
          "internalType": "uint256",
          "name": "value",
          "type": "uint256"
        }
      ],
      "name": "burn",
      "outputs": [],
      "stateMutability": "nonpayable",
      "type": "function"
    },
    {
      "inputs": [
        {
          "internalType": "address",
          "name": "account",
          "type": "address"
        },
        {
          "internalType": "uint256[]",
          "name": "ids",
          "type": "uint256[]"
        },
        {
          "internalType": "uint256[]",
          "name": "values",
          "type": "uint256[]"
        }
      ],
      "name": "burnBatch",
      "outputs": [],
      "stateMutability": "nonpayable",
      "type": "function"
    },
    {
      "inputs": [
        {
          "internalType": "uint256",
          "name": "id",
          "type": "uint256"
        }
      ],
      "name": "exists",
      "outputs": [
        {
          "internalType": "bool",
          "name": "",
          "type": "bool"
        }
      ],
      "stateMutability": "view",
      "type": "function"
    },
    {
      "inputs": [
        {
          "internalType": "bytes32",
          "name": "role",
          "type": "bytes32"
        }
      ],
      "name": "getRoleAdmin",
      "outputs": [
        {
          "internalType": "bytes32",
          "name": "",
          "type": "bytes32"
        }
      ],
      "stateMutability": "view",
      "type": "function"
    },
    {
      "inputs": [
        {
          "internalType": "bytes32",
          "name": "role",
          "type": "bytes32"
        },
        {
          "internalType": "uint256",
          "name": "index",
          "type": "uint256"
        }
      ],
      "name": "getRoleMember",
      "outputs": [
        {
          "internalType": "address",
          "name": "",
          "type": "address"
        }
      ],
      "stateMutability": "view",
      "type": "function"
    },
    {
      "inputs": [
        {
          "internalType": "bytes32",
          "name": "role",
          "type": "bytes32"
        }
      ],
      "name": "getRoleMemberCount",
      "outputs": [
        {
          "internalType": "uint256",
          "name": "",
          "type": "uint256"
        }
      ],
      "stateMutability": "view",
      "type": "function"
    },
    {
      "inputs": [
        {
          "internalType": "bytes32",
          "name": "role",
          "type": "bytes32"
        },
        {
          "internalType": "address",
          "name": "account",
          "type": "address"
        }
      ],
      "name": "grantRole",
      "outputs": [],
      "stateMutability": "nonpayable",
      "type": "function"
    },
    {
      "inputs": [
        {
          "internalType": "bytes32",
          "name": "role",
          "type": "bytes32"
        },
        {
          "internalType": "address",
          "name": "account",
          "type": "address"
        }
      ],
      "name": "hasRole",
      "outputs": [
        {
          "internalType": "bool",
          "name": "",
          "type": "bool"
        }
      ],
      "stateMutability": "view",
      "type": "function"
    },
    {
      "inputs": [
        {
          "internalType": "address",
          "name": "account",
          "type": "address"
        },
        {
          "internalType": "address",
          "name": "operator",
          "type": "address"
        }
      ],
      "name": "isApprovedForAll",
      "outputs": [
        {
          "internalType": "bool",
          "name": "",
          "type": "bool"
        }
      ],
      "stateMutability": "view",
      "type": "function"
    },
    {
      "inputs": [
        {
          "internalType": "address",
          "name": "to",
          "type": "address"
        },
        {
          "internalType": "uint256",
          "name": "id",
          "type": "uint256"
        },
        {
          "internalType": "uint256",
          "name": "amount",
          "type": "uint256"
        },
        {
          "internalType": "bytes",
          "name": "data",
          "type": "bytes"
        }
      ],
      "name": "mint",
      "outputs": [],
      "stateMutability": "nonpayable",
      "type": "function"
    },
    {
      "inputs": [
        {
          "internalType": "address",
          "name": "to",
          "type": "address"
        },
        {
          "internalType": "uint256[]",
          "name": "ids",
          "type": "uint256[]"
        },
        {
          "internalType": "uint256[]",
          "name": "amounts",
          "type": "uint256[]"
        },
        {
          "internalType": "bytes",
          "name": "data",
          "type": "bytes"
        }
      ],
      "name": "mintBatch",
      "outputs": [],
      "stateMutability": "nonpayable",
      "type": "function"
    },
    {
      "inputs": [],
      "name": "pause",
      "outputs": [],
      "stateMutability": "nonpayable",
      "type": "function"
    },
    {
      "inputs": [],
      "name": "paused",
      "outputs": [
        {
          "internalType": "bool",
          "name": "",
          "type": "bool"
        }
      ],
      "stateMutability": "view",
      "type": "function"
    },
    {
      "inputs": [
        {
          "internalType": "bytes32",
          "name": "role",
          "type": "bytes32"
        },
        {
          "internalType": "address",
          "name": "account",
          "type": "address"
        }
      ],
      "name": "renounceRole",
      "outputs": [],
      "stateMutability": "nonpayable",
      "type": "function"
    },
    {
      "inputs": [
        {
          "internalType": "bytes32",
          "name": "role",
          "type": "bytes32"
        },
        {
          "internalType": "address",
          "name": "account",
          "type": "address"
        }
      ],
      "name": "revokeRole",
      "outputs": [],
      "stateMutability": "nonpayable",
      "type": "function"
    },
    {
      "inputs": [
        {
          "internalType": "address",
          "name": "from",
          "type": "address"
        },
        {
          "internalType": "address",
          "name": "to",
          "type": "address"
        },
        {
          "internalType": "uint256[]",
          "name": "ids",
          "type": "uint256[]"
        },
        {
          "internalType": "uint256[]",
          "name": "amounts",
          "type": "uint256[]"
        },
        {
          "internalType": "bytes",
          "name": "data",
          "type": "bytes"
        }
      ],
      "name": "safeBatchTransferFrom",
      "outputs": [],
      "stateMutability": "nonpayable",
      "type": "function"
    },
    {
      "inputs": [
        {
          "internalType": "address",
          "name": "from",
          "type": "address"
        },
        {
          "internalType": "address",
          "name": "to",
          "type": "address"
        },
        {
          "internalType": "uint256",
          "name": "id",
          "type": "uint256"
        },
        {
          "internalType": "uint256",
          "name": "amount",
          "type": "uint256"
        },
        {
          "internalType": "bytes",
          "name": "data",
          "type": "bytes"
        }
      ],
      "name": "safeTransferFrom",
      "outputs": [],
      "stateMutability": "nonpayable",
      "type": "function"
    },
    {
      "inputs": [
        {
          "internalType": "address",
          "name": "operator",
          "type": "address"
        },
        {
          "internalType": "bool",
          "name": "approved",
          "type": "bool"
        }
      ],
      "name": "setApprovalForAll",
      "outputs": [],
      "stateMutability": "nonpayable",
      "type": "function"
    },
    {
      "inputs": [
        {
          "internalType": "bytes4",
          "name": "interfaceId",
          "type": "bytes4"
        }
      ],
      "name": "supportsInterface",
      "outputs": [
        {
          "internalType": "bool",
          "name": "",
          "type": "bool"
        }
      ],
      "stateMutability": "view",
      "type": "function"
    },
    {
      "inputs": [
        {
          "internalType": "uint256",
          "name": "id",
          "type": "uint256"
        }
      ],
      "name": "totalSupply",
      "outputs": [
        {
          "internalType": "uint256",
          "name": "",
          "type": "uint256"
        }
      ],
      "stateMutability": "view",
      "type": "function"
    },
    {
      "inputs": [],
      "name": "unpause",
      "outputs": [],
      "stateMutability": "nonpayable",
      "type": "function"
    },
    {
      "inputs": [
        {
          "internalType": "uint256",
          "name": "",
          "type": "uint256"
        }
      ],
      "name": "uri",
      "outputs": [
        {
          "internalType": "string",
          "name": "",
          "type": "string"
        }
      ],
      "stateMutability": "view",
      "type": "function"
    }
  ],
  "bytecode": "0x60806040523480156200001157600080fd5b5060405162002ea638038062002ea68339810160408190526200003491620002e7565b806200004081620000b7565b506005805460ff1916905562000058600033620000d0565b620000847f9f2df0fed2c77648de5860a4cc508cd0818c85b8b8a1ab4ceeef8d981c8956a633620000d0565b620000b07f65d7a28e3265b37a6474929f336521b332c1681b933f6cb9f3376673440d862a33620000d0565b5062000400565b8051620000cc9060049060208401906200022b565b5050565b620000cc8282620000ed82826200011960201b62000a0d1760201c565b60008281526001602090815260409091206200011491839062000a91620001b9821b17901c565b505050565b6000828152602081815260408083206001600160a01b038516845290915290205460ff16620000cc576000828152602081815260408083206001600160a01b03851684529091529020805460ff19166001179055620001753390565b6001600160a01b0316816001600160a01b0316837f2f8788117e7eff1d82e926ec794901d17c78024a50270940304540a733656f0d60405160405180910390a45050565b6000620001d0836001600160a01b038416620001d9565b90505b92915050565b60008181526001830160205260408120546200022257508154600181810184556000848152602080822090930184905584548482528286019093526040902091909155620001d3565b506000620001d3565b8280546200023990620003c3565b90600052602060002090601f0160209004810192826200025d5760008555620002a8565b82601f106200027857805160ff1916838001178555620002a8565b82800160010185558215620002a8579182015b82811115620002a85782518255916020019190600101906200028b565b50620002b6929150620002ba565b5090565b5b80821115620002b65760008155600101620002bb565b634e487b7160e01b600052604160045260246000fd5b60006020808385031215620002fb57600080fd5b82516001600160401b03808211156200031357600080fd5b818501915085601f8301126200032857600080fd5b8151818111156200033d576200033d620002d1565b604051601f8201601f19908116603f01168101908382118183101715620003685762000368620002d1565b8160405282815288868487010111156200038157600080fd5b600093505b82841015620003a5578484018601518185018701529285019262000386565b82841115620003b75760008684830101525b98975050505050505050565b600181811c90821680620003d857607f821691505b60208210811415620003fa57634e487b7160e01b600052602260045260246000fd5b50919050565b612a9680620004106000396000f3fe608060405234801561001057600080fd5b50600436106101585760003560e01c8063731133e9116100c9578063731133e91461029f5780638456cb59146102b25780639010d07c146102ba57806391d14854146102da578063a217fddf146102ed578063a22cb465146102f5578063bd85b03914610308578063ca15c87314610328578063d53913931461033b578063d547741f14610350578063e63ab1e914610363578063e985e9c514610378578063f242432a146103b4578063f5298aca146103c757600080fd5b8062fdd58e1461015d57806301ffc9a7146101835780630e89341c146101a65780631f7fdffa146101c6578063248a9ca3146101db5780632eb2c2d6146101fe5780632f2ff15d1461021157806336568abe146102245780633f4ba83a146102375780634e1273f41461023f5780634f558e791461025f5780635c975abb146102815780636b20c4541461028c575b600080fd5b61017061016b366004611d9c565b6103da565b6040519081526020015b60405180910390f35b610196610191366004611ddc565b610475565b604051901515815260200161017a565b6101b96101b4366004611df9565b610480565b60405161017a9190611e6a565b6101d96101d4366004611fc6565b610514565b005b6101706101e9366004611df9565b60009081526020819052604090206001015490565b6101d961020c36600461205e565b61055a565b6101d961021f366004612107565b6105a6565b6101d9610232366004612107565b6105d0565b6101d961064e565b61025261024d366004612133565b6106ce565b60405161017a9190612238565b61019661026d366004611df9565b600090815260066020526040902054151590565b60055460ff16610196565b6101d961029a36600461224b565b6107f7565b6101d96102ad3660046122be565b61083a565b6101d961087a565b6102cd6102c8366004612312565b6108f6565b60405161017a9190612334565b6101966102e8366004612107565b610915565b610170600081565b6101d9610303366004612348565b61093e565b610170610316366004611df9565b60009081526006602052604090205490565b610170610336366004611df9565b610949565b610170600080516020612a4183398151915281565b6101d961035e366004612107565b610960565b610170600080516020612a2183398151915281565b610196610386366004612384565b6001600160a01b03918216600090815260036020908152604080832093909416825291909152205460ff1690565b6101d96103c23660046123ae565b610985565b6101d96103d5366004612412565b6109ca565b60006001600160a01b03831661044a5760405162461bcd60e51b815260206004820152602a60248201527f455243313135353a2061646472657373207a65726f206973206e6f742061207660448201526930b634b21037bbb732b960b11b60648201526084015b60405180910390fd5b5060008181526002602090815260408083206001600160a01b03861684529091529020545b92915050565b600061046f82610aa6565b60606004805461048f90612445565b80601f01602080910402602001604051908101604052809291908181526020018280546104bb90612445565b80156105085780601f106104dd57610100808354040283529160200191610508565b820191906000526020600020905b8154815290600101906020018083116104eb57829003601f168201915b50505050509050919050565b61052c600080516020612a4183398151915233610915565b6105485760405162461bcd60e51b815260040161044190612480565b61055484848484610ae6565b50505050565b6001600160a01b03851633148061057657506105768533610386565b6105925760405162461bcd60e51b8152600401610441906124c6565b61059f8585858585610c2f565b5050505050565b6000828152602081905260409020600101546105c181610dca565b6105cb8383610dd7565b505050565b6001600160a01b03811633146106405760405162461bcd60e51b815260206004820152602f60248201527f416363657373436f6e74726f6c3a2063616e206f6e6c792072656e6f756e636560448201526e103937b632b9903337b91039b2b63360891b6064820152608401610441565b61064a8282610df9565b5050565b610666600080516020612a2183398151915233610915565b6106c45760405162461bcd60e51b815260206004820152603b60248201526000805160206129e183398151915260448201527a686176652070617573657220726f6c6520746f20756e706175736560281b6064820152608401610441565b6106cc610e1b565b565b606081518351146107335760405162461bcd60e51b815260206004820152602960248201527f455243313135353a206163636f756e747320616e6420696473206c656e677468604482015268040dad2e6dac2e8c6d60bb1b6064820152608401610441565b600083516001600160401b0381111561074e5761074e611e7d565b604051908082528060200260200182016040528015610777578160200160208202803683370190505b50905060005b84518110156107ef576107c285828151811061079b5761079b612515565b60200260200101518583815181106107b5576107b5612515565b60200260200101516103da565b8282815181106107d4576107d4612515565b60209081029190910101526107e881612541565b905061077d565b509392505050565b6001600160a01b03831633148061081357506108138333610386565b61082f5760405162461bcd60e51b8152600401610441906124c6565b6105cb838383610e67565b610852600080516020612a4183398151915233610915565b61086e5760405162461bcd60e51b815260040161044190612480565b61055484848484610ff4565b610892600080516020612a2183398151915233610915565b6108ee5760405162461bcd60e51b815260206004820152603960248201526000805160206129e1833981519152604482015278686176652070617573657220726f6c6520746f20706175736560381b6064820152608401610441565b6106cc6110cd565b600082815260016020526040812061090e908361110a565b9392505050565b6000918252602082815260408084206001600160a01b0393909316845291905290205460ff1690565b61064a338383611116565b600081815260016020526040812061046f906111f7565b60008281526020819052604090206001015461097b81610dca565b6105cb8383610df9565b6001600160a01b0385163314806109a157506109a18533610386565b6109bd5760405162461bcd60e51b8152600401610441906124c6565b61059f8585858585611201565b6001600160a01b0383163314806109e657506109e68333610386565b610a025760405162461bcd60e51b8152600401610441906124c6565b6105cb83838361132b565b610a178282610915565b61064a576000828152602081815260408083206001600160a01b03851684529091529020805460ff19166001179055610a4d3390565b6001600160a01b0316816001600160a01b0316837f2f8788117e7eff1d82e926ec794901d17c78024a50270940304540a733656f0d60405160405180910390a45050565b600061090e836001600160a01b038416611435565b60006001600160e01b03198216636cdb3d1360e11b1480610ad757506001600160e01b031982166303a24d0760e21b145b8061046f575061046f82611484565b6001600160a01b038416610b0c5760405162461bcd60e51b81526004016104419061255c565b8151835114610b2d5760405162461bcd60e51b81526004016104419061259d565b33610b3d816000878787876114a9565b60005b8451811015610bd957838181518110610b5b57610b5b612515565b602002602001015160026000878481518110610b7957610b79612515565b602002602001015181526020019081526020016000206000886001600160a01b03166001600160a01b031681526020019081526020016000206000828254610bc191906125e5565b90915550819050610bd181612541565b915050610b40565b50846001600160a01b031660006001600160a01b0316826001600160a01b03166000805160206129c18339815191528787604051610c189291906125fd565b60405180910390a461059f816000878787876114b7565b8151835114610c505760405162461bcd60e51b81526004016104419061259d565b6001600160a01b038416610c765760405162461bcd60e51b81526004016104419061262b565b33610c858187878787876114a9565b60005b8451811015610d6e576000858281518110610ca557610ca5612515565b602002602001015190506000858381518110610cc357610cc3612515565b60209081029190910181015160008481526002835260408082206001600160a01b038e168352909352919091205490915081811015610d145760405162461bcd60e51b815260040161044190612670565b60008381526002602090815260408083206001600160a01b038e8116855292528083208585039055908b16825281208054849290610d539084906125e5565b9250508190555050505080610d6790612541565b9050610c88565b50846001600160a01b0316866001600160a01b0316826001600160a01b03166000805160206129c18339815191528787604051610dac9291906125fd565b60405180910390a4610dc28187878787876114b7565b505050505050565b610dd48133611622565b50565b610de18282610a0d565b60008281526001602052604090206105cb9082610a91565b610e038282611686565b60008281526001602052604090206105cb90826116eb565b610e23611700565b6005805460ff191690557f5db9ee0a495bf2e6ff9c91a7834c1ba4fdd244a5e8aa4e537bd38aeae4b073aa335b604051610e5d9190612334565b60405180910390a1565b6001600160a01b038316610e8d5760405162461bcd60e51b8152600401610441906126ba565b8051825114610eae5760405162461bcd60e51b81526004016104419061259d565b6000339050610ed1818560008686604051806020016040528060008152506114a9565b60005b8351811015610f99576000848281518110610ef157610ef1612515565b602002602001015190506000848381518110610f0f57610f0f612515565b60209081029190910181015160008481526002835260408082206001600160a01b038c168352909352919091205490915081811015610f605760405162461bcd60e51b8152600401610441906126fd565b60009283526002602090815260408085206001600160a01b038b1686529091529092209103905580610f9181612541565b915050610ed4565b5060006001600160a01b0316846001600160a01b0316826001600160a01b03166000805160206129c18339815191528686604051610fd89291906125fd565b60405180910390a4604080516020810190915260009052610554565b6001600160a01b03841661101a5760405162461bcd60e51b81526004016104419061255c565b33600061102685611749565b9050600061103385611749565b9050611044836000898585896114a9565b60008681526002602090815260408083206001600160a01b038b168452909152812080548792906110769084906125e5565b909155505060408051878152602081018790526001600160a01b03808a169260009291871691600080516020612a01833981519152910160405180910390a46110c483600089898989611794565b50505050505050565b6110d561185e565b6005805460ff191660011790557f62e78cea01bee320cd4e420270b5ea74000d11b0c9f74754ebdbfc544b05a258610e503390565b600061090e83836118a4565b816001600160a01b0316836001600160a01b0316141561118a5760405162461bcd60e51b815260206004820152602960248201527f455243313135353a2073657474696e6720617070726f76616c20737461747573604482015268103337b91039b2b63360b91b6064820152608401610441565b6001600160a01b03838116600081815260036020908152604080832094871680845294825291829020805460ff191686151590811790915591519182527f17307eab39ab6107e8899845ad3d59bd9653f200f220920489ca2b5937696c31910160405180910390a3505050565b600061046f825490565b6001600160a01b0384166112275760405162461bcd60e51b81526004016104419061262b565b33600061123385611749565b9050600061124085611749565b90506112508389898585896114a9565b60008681526002602090815260408083206001600160a01b038c168452909152902054858110156112935760405162461bcd60e51b815260040161044190612670565b60008781526002602090815260408083206001600160a01b038d8116855292528083208985039055908a168252812080548892906112d29084906125e5565b909155505060408051888152602081018890526001600160a01b03808b16928c82169291881691600080516020612a01833981519152910160405180910390a4611320848a8a8a8a8a611794565b505050505050505050565b6001600160a01b0383166113515760405162461bcd60e51b8152600401610441906126ba565b33600061135d84611749565b9050600061136a84611749565b905061138a838760008585604051806020016040528060008152506114a9565b60008581526002602090815260408083206001600160a01b038a168452909152902054848110156113cd5760405162461bcd60e51b8152600401610441906126fd565b60008681526002602090815260408083206001600160a01b038b81168086529184528285208a8703905582518b81529384018a9052909290881691600080516020612a01833981519152910160405180910390a46040805160208101909152600090526110c4565b600081815260018301602052604081205461147c5750815460018181018455600084815260208082209093018490558454848252828601909352604090209190915561046f565b50600061046f565b60006001600160e01b03198216635a05180f60e01b148061046f575061046f826118ce565b610dc2868686868686611903565b6001600160a01b0384163b15610dc25760405163bc197c8160e01b81526001600160a01b0385169063bc197c81906114fb9089908990889088908890600401612741565b602060405180830381600087803b15801561151557600080fd5b505af1925050508015611545575060408051601f3d908101601f191682019092526115429181019061279f565b60015b6115f2576115516127bc565b806308c379a0141561158b57506115666127d8565b80611571575061158d565b8060405162461bcd60e51b81526004016104419190611e6a565b505b60405162461bcd60e51b815260206004820152603460248201527f455243313135353a207472616e7366657220746f206e6f6e20455243313135356044820152732932b1b2b4bb32b91034b6b83632b6b2b73a32b960611b6064820152608401610441565b6001600160e01b0319811663bc197c8160e01b146110c45760405162461bcd60e51b815260040161044190612861565b61162c8282610915565b61064a57611644816001600160a01b03166014611a8a565b61164f836020611a8a565b6040516020016116609291906128a9565b60408051601f198184030181529082905262461bcd60e51b825261044191600401611e6a565b6116908282610915565b1561064a576000828152602081815260408083206001600160a01b0385168085529252808320805460ff1916905551339285917ff6391f5c32d9c69d2a47ea670b442974b53935d1edc7fd64eb21e047a839171b9190a45050565b600061090e836001600160a01b038416611c25565b60055460ff166106cc5760405162461bcd60e51b815260206004820152601460248201527314185d5cd8589b194e881b9bdd081c185d5cd95960621b6044820152606401610441565b6040805160018082528183019092526060916000919060208083019080368337019050509050828160008151811061178357611783612515565b602090810291909101015292915050565b6001600160a01b0384163b15610dc25760405163f23a6e6160e01b81526001600160a01b0385169063f23a6e61906117d89089908990889088908890600401612918565b602060405180830381600087803b1580156117f257600080fd5b505af1925050508015611822575060408051601f3d908101601f1916820190925261181f9181019061279f565b60015b61182e576115516127bc565b6001600160e01b0319811663f23a6e6160e01b146110c45760405162461bcd60e51b815260040161044190612861565b60055460ff16156106cc5760405162461bcd60e51b815260206004820152601060248201526f14185d5cd8589b194e881c185d5cd95960821b6044820152606401610441565b60008260000182815481106118bb576118bb612515565b9060005260206000200154905092915050565b60006001600160e01b03198216637965db0b60e01b148061046f57506301ffc9a760e01b6001600160e01b031983161461046f565b611911868686868686611d18565b6001600160a01b0385166119985760005b83518110156119965782818151811061193d5761193d612515565b60200260200101516006600086848151811061195b5761195b612515565b60200260200101518152602001908152602001600020600082825461198091906125e5565b9091555061198f905081612541565b9050611922565b505b6001600160a01b038416610dc25760005b83518110156110c45760008482815181106119c6576119c6612515565b6020026020010151905060008483815181106119e4576119e4612515565b6020026020010151905060006006600084815260200190815260200160002054905081811015611a675760405162461bcd60e51b815260206004820152602860248201527f455243313135353a206275726e20616d6f756e74206578636565647320746f74604482015267616c537570706c7960c01b6064820152608401610441565b60009283526006602052604090922091039055611a8381612541565b90506119a9565b60606000611a9983600261295d565b611aa49060026125e5565b6001600160401b03811115611abb57611abb611e7d565b6040519080825280601f01601f191660200182016040528015611ae5576020820181803683370190505b509050600360fc1b81600081518110611b0057611b00612515565b60200101906001600160f81b031916908160001a905350600f60fb1b81600181518110611b2f57611b2f612515565b60200101906001600160f81b031916908160001a9053506000611b5384600261295d565b611b5e9060016125e5565b90505b6001811115611bd6576f181899199a1a9b1b9c1cb0b131b232b360811b85600f1660108110611b9257611b92612515565b1a60f81b828281518110611ba857611ba8612515565b60200101906001600160f81b031916908160001a90535060049490941c93611bcf8161297c565b9050611b61565b50831561090e5760405162461bcd60e51b815260206004820181905260248201527f537472696e67733a20686578206c656e67746820696e73756666696369656e746044820152606401610441565b60008181526001830160205260408120548015611d0e576000611c49600183612993565b8554909150600090611c5d90600190612993565b9050818114611cc2576000866000018281548110611c7d57611c7d612515565b9060005260206000200154905080876000018481548110611ca057611ca0612515565b6000918252602080832090910192909255918252600188019052604090208390555b8554869080611cd357611cd36129aa565b60019003818190600052602060002001600090559055856001016000868152602001908152602001600020600090556001935050505061046f565b600091505061046f565b60055460ff1615610dc25760405162461bcd60e51b815260206004820152602c60248201527f455243313135355061757361626c653a20746f6b656e207472616e736665722060448201526b1dda1a5b19481c185d5cd95960a21b6064820152608401610441565b80356001600160a01b0381168114611d9757600080fd5b919050565b60008060408385031215611daf57600080fd5b611db883611d80565b946020939093013593505050565b6001600160e01b031981168114610dd457600080fd5b600060208284031215611dee57600080fd5b813561090e81611dc6565b600060208284031215611e0b57600080fd5b5035919050565b60005b83811015611e2d578181015183820152602001611e15565b838111156105545750506000910152565b60008151808452611e56816020860160208601611e12565b601f01601f19169290920160200192915050565b60208152600061090e6020830184611e3e565b634e487b7160e01b600052604160045260246000fd5b601f8201601f191681016001600160401b0381118282101715611eb857611eb8611e7d565b6040525050565b60006001600160401b03821115611ed857611ed8611e7d565b5060051b60200190565b600082601f830112611ef357600080fd5b81356020611f0082611ebf565b604051611f0d8282611e93565b83815260059390931b8501820192828101915086841115611f2d57600080fd5b8286015b84811015611f485780358352918301918301611f31565b509695505050505050565b600082601f830112611f6457600080fd5b81356001600160401b03811115611f7d57611f7d611e7d565b604051611f94601f8301601f191660200182611e93565b818152846020838601011115611fa957600080fd5b816020850160208301376000918101602001919091529392505050565b60008060008060808587031215611fdc57600080fd5b611fe585611d80565b935060208501356001600160401b038082111561200157600080fd5b61200d88838901611ee2565b9450604087013591508082111561202357600080fd5b61202f88838901611ee2565b9350606087013591508082111561204557600080fd5b5061205287828801611f53565b91505092959194509250565b600080600080600060a0868803121561207657600080fd5b61207f86611d80565b945061208d60208701611d80565b935060408601356001600160401b03808211156120a957600080fd5b6120b589838a01611ee2565b945060608801359150808211156120cb57600080fd5b6120d789838a01611ee2565b935060808801359150808211156120ed57600080fd5b506120fa88828901611f53565b9150509295509295909350565b6000806040838503121561211a57600080fd5b8235915061212a60208401611d80565b90509250929050565b6000806040838503121561214657600080fd5b82356001600160401b038082111561215d57600080fd5b818501915085601f83011261217157600080fd5b8135602061217e82611ebf565b60405161218b8282611e93565b83815260059390931b85018201928281019150898411156121ab57600080fd5b948201945b838610156121d0576121c186611d80565b825294820194908201906121b0565b965050860135925050808211156121e657600080fd5b506121f385828601611ee2565b9150509250929050565b600081518084526020808501945080840160005b8381101561222d57815187529582019590820190600101612211565b509495945050505050565b60208152600061090e60208301846121fd565b60008060006060848603121561226057600080fd5b61226984611d80565b925060208401356001600160401b038082111561228557600080fd5b61229187838801611ee2565b935060408601359150808211156122a757600080fd5b506122b486828701611ee2565b9150509250925092565b600080600080608085870312156122d457600080fd5b6122dd85611d80565b9350602085013592506040850135915060608501356001600160401b0381111561230657600080fd5b61205287828801611f53565b6000806040838503121561232557600080fd5b50508035926020909101359150565b6001600160a01b0391909116815260200190565b6000806040838503121561235b57600080fd5b61236483611d80565b91506020830135801515811461237957600080fd5b809150509250929050565b6000806040838503121561239757600080fd5b6123a083611d80565b915061212a60208401611d80565b600080600080600060a086880312156123c657600080fd5b6123cf86611d80565b94506123dd60208701611d80565b9350604086013592506060860135915060808601356001600160401b0381111561240657600080fd5b6120fa88828901611f53565b60008060006060848603121561242757600080fd5b61243084611d80565b95602085013595506040909401359392505050565b600181811c9082168061245957607f821691505b6020821081141561247a57634e487b7160e01b600052602260045260246000fd5b50919050565b60208082526038908201526000805160206129e18339815191526040820152771a185d99481b5a5b9d195c881c9bdb19481d1bc81b5a5b9d60421b606082015260800190565b6020808252602f908201527f455243313135353a2063616c6c6572206973206e6f7420746f6b656e206f776e60408201526e195c881b9bdc88185c1c1c9bdd9959608a1b606082015260800190565b634e487b7160e01b600052603260045260246000fd5b634e487b7160e01b600052601160045260246000fd5b60006000198214156125555761255561252b565b5060010190565b60208082526021908201527f455243313135353a206d696e7420746f20746865207a65726f206164647265736040820152607360f81b606082015260800190565b60208082526028908201527f455243313135353a2069647320616e6420616d6f756e7473206c656e677468206040820152670dad2e6dac2e8c6d60c31b606082015260800190565b600082198211156125f8576125f861252b565b500190565b60408152600061261060408301856121fd565b828103602084015261262281856121fd565b95945050505050565b60208082526025908201527f455243313135353a207472616e7366657220746f20746865207a65726f206164604082015264647265737360d81b606082015260800190565b6020808252602a908201527f455243313135353a20696e73756666696369656e742062616c616e636520666f60408201526939103a3930b739b332b960b11b606082015260800190565b60208082526023908201527f455243313135353a206275726e2066726f6d20746865207a65726f206164647260408201526265737360e81b606082015260800190565b60208082526024908201527f455243313135353a206275726e20616d6f756e7420657863656564732062616c604082015263616e636560e01b606082015260800190565b6001600160a01b0386811682528516602082015260a06040820181905260009061276d908301866121fd565b828103606084015261277f81866121fd565b905082810360808401526127938185611e3e565b98975050505050505050565b6000602082840312156127b157600080fd5b815161090e81611dc6565b600060033d11156127d55760046000803e5060005160e01c5b90565b600060443d10156127e65790565b6040516003193d81016004833e81513d6001600160401b03816024840111818411171561281557505050505090565b828501915081518181111561282d5750505050505090565b843d87010160208285010111156128475750505050505090565b61285660208286010187611e93565b509095945050505050565b60208082526028908201527f455243313135353a204552433131353552656365697665722072656a656374656040820152676420746f6b656e7360c01b606082015260800190565b76020b1b1b2b9b9a1b7b73a3937b61d1030b1b1b7bab73a1604d1b8152600083516128db816017850160208801611e12565b7001034b99036b4b9b9b4b733903937b6329607d1b601791840191820152835161290c816028840160208801611e12565b01602801949350505050565b6001600160a01b03868116825285166020820152604081018490526060810183905260a06080820181905260009061295290830184611e3e565b979650505050505050565b60008160001904831182151516156129775761297761252b565b500290565b60008161298b5761298b61252b565b506000190190565b6000828210156129a5576129a561252b565b500390565b634e487b7160e01b600052603160045260246000fdfe4a39dc06d4c0dbc64b70af90fd698a233a518aa5d07e595d983b8c0526c8f7fb455243313135355072657365744d696e7465725061757365723a206d75737420c3d58168c5ae7397731d063d5bbf3d657854427343f4c083240f7aacaa2d0f6265d7a28e3265b37a6474929f336521b332c1681b933f6cb9f3376673440d862a9f2df0fed2c77648de5860a4cc508cd0818c85b8b8a1ab4ceeef8d981c8956a6a2646970667358221220cd457d9760b0f557503a68bb8f446dfa5e1bf373f623ca7a192643bf8e9a3f9e64736f6c63430008090033",
  "linkReferences": {},
  "deployedLinkReferences": {}
}