{
  "_format": "hh-sol-artifact-1",
  "contractName": "MultiSigWallet",
  "sourceName": "contracts/Multisig.sol",
  "abi": [
    {
      "inputs": [
        {
          "internalType": "address[]",
          "name": "_owners",
          "type": "address[]"
        },
        {
          "internalType": "uint256",
          "name": "_numConfirmationsRequired",
          "type": "uint256"
        }
      ],
      "stateMutability": "nonpayable",
      "type": "constructor"
    },
    {
      "anonymous": false,
      "inputs": [
        {
          "indexed": true,
          "internalType": "address",
          "name": "owner",
          "type": "address"
        },
        {
          "indexed": true,
          "internalType": "uint256",
          "name": "txIndex",
          "type": "uint256"
        }
      ],
      "name": "ConfirmTransaction",
      "type": "event"
    },
    {
      "anonymous": false,
      "inputs": [
        {
          "indexed": true,
          "internalType": "address",
          "name": "sender",
          "type": "address"
        },
        {
          "indexed": false,
          "internalType": "uint256",
          "name": "amount",
          "type": "uint256"
        },
        {
          "indexed": false,
          "internalType": "uint256",
          "name": "balance",
          "type": "uint256"
        }
      ],
      "name": "Deposit",
      "type": "event"
    },
    {
      "anonymous": false,
      "inputs": [
        {
          "indexed": true,
          "internalType": "address",
          "name": "owner",
          "type": "address"
        },
        {
          "indexed": true,
          "internalType": "uint256",
          "name": "txIndex",
          "type": "uint256"
        }
      ],
      "name": "ExecuteTransaction",
      "type": "event"
    },
    {
      "anonymous": false,
      "inputs": [
        {
          "indexed": true,
          "internalType": "address",
          "name": "owner",
          "type": "address"
        },
        {
          "indexed": true,
          "internalType": "uint256",
          "name": "txIndex",
          "type": "uint256"
        }
      ],
      "name": "RevokeConfirmation",
      "type": "event"
    },
    {
      "anonymous": false,
      "inputs": [
        {
          "indexed": true,
          "internalType": "address",
          "name": "owner",
          "type": "address"
        },
        {
          "indexed": true,
          "internalType": "uint256",
          "name": "txIndex",
          "type": "uint256"
        },
        {
          "indexed": true,
          "internalType": "address",
          "name": "to",
          "type": "address"
        },
        {
          "indexed": false,
          "internalType": "uint256",
          "name": "value",
          "type": "uint256"
        },
        {
          "indexed": false,
          "internalType": "bytes",
          "name": "data",
          "type": "bytes"
        }
      ],
      "name": "SubmitTransaction",
      "type": "event"
    },
    {
      "inputs": [
        {
          "internalType": "uint256",
          "name": "_txIndex",
          "type": "uint256"
        }
      ],
      "name": "confirmTransaction",
      "outputs": [],
      "stateMutability": "nonpayable",
      "type": "function"
    },
    {
      "inputs": [
        {
          "internalType": "uint256",
          "name": "_txIndex",
          "type": "uint256"
        }
      ],
      "name": "executeTransaction",
      "outputs": [],
      "stateMutability": "nonpayable",
      "type": "function"
    },
    {
      "inputs": [],
      "name": "getOwners",
      "outputs": [
        {
          "internalType": "address[]",
          "name": "",
          "type": "address[]"
        }
      ],
      "stateMutability": "view",
      "type": "function"
    },
    {
      "inputs": [
        {
          "internalType": "uint256",
          "name": "_txIndex",
          "type": "uint256"
        }
      ],
      "name": "getTransaction",
      "outputs": [
        {
          "internalType": "address",
          "name": "to",
          "type": "address"
        },
        {
          "internalType": "uint256",
          "name": "value",
          "type": "uint256"
        },
        {
          "internalType": "bytes",
          "name": "data",
          "type": "bytes"
        },
        {
          "internalType": "bool",
          "name": "executed",
          "type": "bool"
        },
        {
          "internalType": "uint256",
          "name": "numConfirmations",
          "type": "uint256"
        }
      ],
      "stateMutability": "view",
      "type": "function"
    },
    {
      "inputs": [],
      "name": "getTransactionCount",
      "outputs": [
        {
          "internalType": "uint256",
          "name": "",
          "type": "uint256"
        }
      ],
      "stateMutability": "view",
      "type": "function"
    },
    {
      "inputs": [
        {
          "internalType": "uint256",
          "name": "",
          "type": "uint256"
        },
        {
          "internalType": "address",
          "name": "",
          "type": "address"
        }
      ],
      "name": "isConfirmed",
      "outputs": [
        {
          "internalType": "bool",
          "name": "",
          "type": "bool"
        }
      ],
      "stateMutability": "view",
      "type": "function"
    },
    {
      "inputs": [
        {
          "internalType": "address",
          "name": "",
          "type": "address"
        }
      ],
      "name": "isOwner",
      "outputs": [
        {
          "internalType": "bool",
          "name": "",
          "type": "bool"
        }
      ],
      "stateMutability": "view",
      "type": "function"
    },
    {
      "inputs": [],
      "name": "numConfirmationsRequired",
      "outputs": [
        {
          "internalType": "uint256",
          "name": "",
          "type": "uint256"
        }
      ],
      "stateMutability": "view",
      "type": "function"
    },
    {
      "inputs": [
        {
          "internalType": "uint256",
          "name": "",
          "type": "uint256"
        }
      ],
      "name": "owners",
      "outputs": [
        {
          "internalType": "address",
          "name": "",
          "type": "address"
        }
      ],
      "stateMutability": "view",
      "type": "function"
    },
    {
      "inputs": [
        {
          "internalType": "uint256",
          "name": "_txIndex",
          "type": "uint256"
        }
      ],
      "name": "revokeConfirmation",
      "outputs": [],
      "stateMutability": "nonpayable",
      "type": "function"
    },
    {
      "inputs": [
        {
          "internalType": "address",
          "name": "_to",
          "type": "address"
        },
        {
          "internalType": "uint256",
          "name": "_value",
          "type": "uint256"
        },
        {
          "internalType": "bytes",
          "name": "_data",
          "type": "bytes"
        }
      ],
      "name": "submitTransaction",
      "outputs": [],
      "stateMutability": "nonpayable",
      "type": "function"
    },
    {
      "inputs": [
        {
          "internalType": "uint256",
          "name": "",
          "type": "uint256"
        }
      ],
      "name": "transactions",
      "outputs": [
        {
          "internalType": "address",
          "name": "to",
          "type": "address"
        },
        {
          "internalType": "uint256",
          "name": "value",
          "type": "uint256"
        },
        {
          "internalType": "bytes",
          "name": "data",
          "type": "bytes"
        },
        {
          "internalType": "bool",
          "name": "executed",
          "type": "bool"
        },
        {
          "internalType": "uint256",
          "name": "numConfirmations",
          "type": "uint256"
        }
      ],
      "stateMutability": "view",
      "type": "function"
    },
    {
      "stateMutability": "payable",
      "type": "receive"
    }
  ],
  "bytecode": "0x60806040523480156200001157600080fd5b506040516200143838038062001438833981016040819052620000349162000282565b60008251116200007d5760405162461bcd60e51b815260206004820152600f60248201526e1bdddb995c9cc81c995c5d5a5c9959608a1b60448201526064015b60405180910390fd5b6000811180156200008f575081518111155b620000ee5760405162461bcd60e51b815260206004820152602860248201527f696e76616c6964206e756d626572206f6620726571756972656420636f6e6669604482015267726d6174696f6e7360c01b606482015260840162000074565b60005b8251811015620002445760008382815181106200011257620001126200035c565b6020026020010151905060006001600160a01b0316816001600160a01b03161415620001715760405162461bcd60e51b815260206004820152600d60248201526c34b73b30b634b21037bbb732b960991b604482015260640162000074565b6001600160a01b03811660009081526001602052604090205460ff1615620001cf5760405162461bcd60e51b815260206004820152601060248201526f6f776e6572206e6f7420756e6971756560801b604482015260640162000074565b6001600160a01b031660008181526001602081905260408220805460ff191682179055815490810182559080527f290decd9548b62a8d60345a988386fc84ba6bc95484008f6362f93160ef3e5630180546001600160a01b0319169091179055806200023b8162000372565b915050620000f1565b50600255506200039c565b634e487b7160e01b600052604160045260246000fd5b80516001600160a01b03811681146200027d57600080fd5b919050565b600080604083850312156200029657600080fd5b82516001600160401b0380821115620002ae57600080fd5b818501915085601f830112620002c357600080fd5b8151602082821115620002da57620002da6200024f565b8160051b604051601f19603f830116810181811086821117156200030257620003026200024f565b6040529283528183019350848101820192898411156200032157600080fd5b948201945b838610156200034a576200033a8662000265565b8552948201949382019362000326565b97909101519698969750505050505050565b634e487b7160e01b600052603260045260246000fd5b60006000198214156200039557634e487b7160e01b600052601160045260246000fd5b5060010190565b61108c80620003ac6000396000f3fe60806040526004361061009b5760003560e01c8063025e7c27146100e157806320ea8d861461011e5780632e7700f0146101405780632f54bf6e1461015f57806333ea3dc81461019f57806380f59a65146101d05780639ace38c21461020b578063a0e67e2b1461022b578063c01a8c841461024d578063c64274741461026d578063d0549b851461028d578063ee22610b146102a357600080fd5b366100dc576040805134815247602082015233917f90890809c654f11d6e72a28fa60149770a0d11ec6c92319d6ceb2bb0a4ea1a15910160405180910390a2005b600080fd5b3480156100ed57600080fd5b506101016100fc366004610c4f565b6102c3565b6040516001600160a01b0390911681526020015b60405180910390f35b34801561012a57600080fd5b5061013e610139366004610c4f565b6102ed565b005b34801561014c57600080fd5b506004545b604051908152602001610115565b34801561016b57600080fd5b5061018f61017a366004610c84565b60016020526000908152604090205460ff1681565b6040519015158152602001610115565b3480156101ab57600080fd5b506101bf6101ba366004610c4f565b610478565b604051610115959493929190610cf3565b3480156101dc57600080fd5b5061018f6101eb366004610d2e565b600360209081526000928352604080842090915290825290205460ff1681565b34801561021757600080fd5b506101bf610226366004610c4f565b610573565b34801561023757600080fd5b5061024061064c565b6040516101159190610d5a565b34801561025957600080fd5b5061013e610268366004610c4f565b6106ae565b34801561027957600080fd5b5061013e610288366004610dbd565b61083c565b34801561029957600080fd5b5061015160025481565b3480156102af57600080fd5b5061013e6102be366004610c4f565b6109c3565b600081815481106102d357600080fd5b6000918252602090912001546001600160a01b0316905081565b3360009081526001602052604090205460ff166103255760405162461bcd60e51b815260040161031c90610e88565b60405180910390fd5b600454819081106103485760405162461bcd60e51b815260040161031c90610eab565b816004818154811061035c5761035c610ed6565b600091825260209091206003600590920201015460ff16156103905760405162461bcd60e51b815260040161031c90610eec565b6000600484815481106103a5576103a5610ed6565b600091825260208083208784526003825260408085203386529092529220546005909102909101915060ff166104105760405162461bcd60e51b815260206004820152601060248201526f1d1e081b9bdd0818dbdb999a5c9b595960821b604482015260640161031c565b60018160040160008282546104259190610f2f565b90915550506000848152600360209081526040808320338085529252808320805460ff191690555186927ff0dca620e2e81f7841d07bcc105e1704fb01475b278a9d4c236e1c62945edd5591a350505050565b600080606060008060006004878154811061049557610495610ed6565b6000918252602090912060059091020180546001820154600383015460048401546002850180549596506001600160a01b039094169492939260ff9092169183906104df90610f46565b80601f016020809104026020016040519081016040528092919081815260200182805461050b90610f46565b80156105585780601f1061052d57610100808354040283529160200191610558565b820191906000526020600020905b81548152906001019060200180831161053b57829003601f168201915b50505050509250955095509550955095505091939590929450565b6004818154811061058357600080fd5b60009182526020909120600590910201805460018201546002830180546001600160a01b0390931694509092916105b990610f46565b80601f01602080910402602001604051908101604052809291908181526020018280546105e590610f46565b80156106325780601f1061060757610100808354040283529160200191610632565b820191906000526020600020905b81548152906001019060200180831161061557829003601f168201915b505050506003830154600490930154919260ff1691905085565b606060008054806020026020016040519081016040528092919081815260200182805480156106a457602002820191906000526020600020905b81546001600160a01b03168152600190910190602001808311610686575b5050505050905090565b3360009081526001602052604090205460ff166106dd5760405162461bcd60e51b815260040161031c90610e88565b600454819081106107005760405162461bcd60e51b815260040161031c90610eab565b816004818154811061071457610714610ed6565b600091825260209091206003600590920201015460ff16156107485760405162461bcd60e51b815260040161031c90610eec565b6000838152600360209081526040808320338452909152902054839060ff16156107ab5760405162461bcd60e51b81526020600482015260146024820152731d1e08185b1c9958591e4818dbdb999a5c9b595960621b604482015260640161031c565b6000600485815481106107c0576107c0610ed6565b9060005260206000209060050201905060018160040160008282546107e59190610f81565b90915550506000858152600360209081526040808320338085529252808320805460ff191660011790555187927f5cbe105e36805f7820e291f799d5794ff948af2a5f664e580382defb6339004191a35050505050565b3360009081526001602052604090205460ff1661086b5760405162461bcd60e51b815260040161031c90610e88565b600480546040805160a0810182526001600160a01b0387811682526020808301888152938301878152600060608501819052608085018190526001870188559690965282517f8a35acfbc15ff81a39ae7d344fd709f28e8600b4aa8c65c6b64bfe7fe36bd19b6005870290810180546001600160a01b0319169290941691909117835593517f8a35acfbc15ff81a39ae7d344fd709f28e8600b4aa8c65c6b64bfe7fe36bd19c8501559451805194959294919361094f937f8a35acfbc15ff81a39ae7d344fd709f28e8600b4aa8c65c6b64bfe7fe36bd19d90910192910190610bb6565b50606082015160038201805460ff19169115159190911790556080909101516004909101556040516001600160a01b03851690829033907fd5a05bf70715ad82a09a756320284a1b54c9ff74cd0f8cce6219e79b563fe59d906109b59088908890610f99565b60405180910390a450505050565b3360009081526001602052604090205460ff166109f25760405162461bcd60e51b815260040161031c90610e88565b60045481908110610a155760405162461bcd60e51b815260040161031c90610eab565b8160048181548110610a2957610a29610ed6565b600091825260209091206003600590920201015460ff1615610a5d5760405162461bcd60e51b815260040161031c90610eec565b600060048481548110610a7257610a72610ed6565b9060005260206000209060050201905060025481600401541015610acc5760405162461bcd60e51b81526020600482015260116024820152700c6c2dcdcdee840caf0cac6eae8ca40e8f607b1b604482015260640161031c565b60038101805460ff191660019081179091558154908201546040516000926001600160a01b03169190610b03906002860190610fba565b60006040518083038185875af1925050503d8060008114610b40576040519150601f19603f3d011682016040523d82523d6000602084013e610b45565b606091505b5050905080610b825760405162461bcd60e51b81526020600482015260096024820152681d1e0819985a5b195960ba1b604482015260640161031c565b604051859033907f5445f318f4f5fcfb66592e68e0cc5822aa15664039bd5f0ffde24c5a8142b1ac90600090a35050505050565b828054610bc290610f46565b90600052602060002090601f016020900481019282610be45760008555610c2a565b82601f10610bfd57805160ff1916838001178555610c2a565b82800160010185558215610c2a579182015b82811115610c2a578251825591602001919060010190610c0f565b50610c36929150610c3a565b5090565b5b80821115610c365760008155600101610c3b565b600060208284031215610c6157600080fd5b5035919050565b80356001600160a01b0381168114610c7f57600080fd5b919050565b600060208284031215610c9657600080fd5b610c9f82610c68565b9392505050565b6000815180845260005b81811015610ccc57602081850181015186830182015201610cb0565b81811115610cde576000602083870101525b50601f01601f19169290920160200192915050565b60018060a01b038616815284602082015260a060408201526000610d1a60a0830186610ca6565b931515606083015250608001529392505050565b60008060408385031215610d4157600080fd5b82359150610d5160208401610c68565b90509250929050565b6020808252825182820181905260009190848201906040850190845b81811015610d9b5783516001600160a01b031683529284019291840191600101610d76565b50909695505050505050565b634e487b7160e01b600052604160045260246000fd5b600080600060608486031215610dd257600080fd5b610ddb84610c68565b925060208401359150604084013567ffffffffffffffff80821115610dff57600080fd5b818601915086601f830112610e1357600080fd5b813581811115610e2557610e25610da7565b604051601f8201601f19908116603f01168101908382118183101715610e4d57610e4d610da7565b81604052828152896020848701011115610e6657600080fd5b8260208601602083013760006020848301015280955050505050509250925092565b6020808252600990820152683737ba1037bbb732b960b91b604082015260600190565b6020808252601190820152701d1e08191bd95cc81b9bdd08195e1a5cdd607a1b604082015260600190565b634e487b7160e01b600052603260045260246000fd5b6020808252601390820152721d1e08185b1c9958591e48195e1958dd5d1959606a1b604082015260600190565b634e487b7160e01b600052601160045260246000fd5b600082821015610f4157610f41610f19565b500390565b600181811c90821680610f5a57607f821691505b60208210811415610f7b57634e487b7160e01b600052602260045260246000fd5b50919050565b60008219821115610f9457610f94610f19565b500190565b828152604060208201526000610fb26040830184610ca6565b949350505050565b600080835481600182811c915080831680610fd657607f831692505b6020808410821415610ff657634e487b7160e01b86526022600452602486fd5b81801561100a576001811461101b57611048565b60ff19861689528489019650611048565b60008a81526020902060005b868110156110405781548b820152908501908301611027565b505084890196505b50949897505050505050505056fea2646970667358221220433fe3cf21b53c06d1c1e30b1f59adbd3b02e0f2778c29b232463636ea40eeac64736f6c63430008090033",
  "linkReferences": {},
  "deployedLinkReferences": {}
}